{
	"contracts/LinkShield.sol": {
		"LinkShield": {
			"abi": [
				{
					"inputs": [
						{
							"internalType": "string",
							"name": "url",
							"type": "string"
						},
						{
							"internalType": "string",
							"name": "linkId",
							"type": "string"
						},
						{
							"internalType": "uint256",
							"name": "fee",
							"type": "uint256"
						}
					],
					"name": "addLink",
					"outputs": [],
					"stateMutability": "nonpayable",
					"type": "function"
				},
				{
					"inputs": [],
					"name": "commission",
					"outputs": [
						{
							"internalType": "uint256",
							"name": "",
							"type": "uint256"
						}
					],
					"stateMutability": "view",
					"type": "function"
				},
				{
					"inputs": [
						{
							"internalType": "string",
							"name": "linkId",
							"type": "string"
						}
					],
					"name": "getLink",
					"outputs": [
						{
							"components": [
								{
									"internalType": "string",
									"name": "url",
									"type": "string"
								},
								{
									"internalType": "address",
									"name": "owner",
									"type": "address"
								},
								{
									"internalType": "uint256",
									"name": "fee",
									"type": "uint256"
								}
							],
							"internalType": "struct LinkShield.Link",
							"name": "",
							"type": "tuple"
						}
					],
					"stateMutability": "view",
					"type": "function"
				},
				{
					"inputs": [
						{
							"internalType": "string",
							"name": "",
							"type": "string"
						},
						{
							"internalType": "address",
							"name": "",
							"type": "address"
						}
					],
					"name": "hasAccess",
					"outputs": [
						{
							"internalType": "bool",
							"name": "",
							"type": "bool"
						}
					],
					"stateMutability": "view",
					"type": "function"
				},
				{
					"inputs": [
						{
							"internalType": "string",
							"name": "linkId",
							"type": "string"
						}
					],
					"name": "payLink",
					"outputs": [],
					"stateMutability": "payable",
					"type": "function"
				}
			],
			"devdoc": {
				"kind": "dev",
				"methods": {},
				"version": 1
			},
			"evm": {
				"assembly": "    /* \"contracts/LinkShield.sol\":98:1903  contract LinkShield{... */\n  mstore(0x40, 0x80)\n    /* \"contracts/LinkShield.sol\":413:414  2 */\n  0x02\n    /* \"contracts/LinkShield.sol\":385:414  uint256 public commission = 2 */\n  0x00\n  sstore\n    /* \"contracts/LinkShield.sol\":98:1903  contract LinkShield{... */\n  callvalue\n  dup1\n  iszero\n  tag_1\n  jumpi\n  revert(0x00, 0x00)\ntag_1:\n  pop\n  dataSize(sub_0)\n  dup1\n  dataOffset(sub_0)\n  0x00\n  codecopy\n  0x00\n  return\nstop\n\nsub_0: assembly {\n        /* \"contracts/LinkShield.sol\":98:1903  contract LinkShield{... */\n      mstore(0x40, 0x80)\n      jumpi(tag_1, lt(calldatasize, 0x04))\n      shr(0xe0, calldataload(0x00))\n      dup1\n      0x13bd20e2\n      eq\n      tag_2\n      jumpi\n      dup1\n      0x429cad86\n      eq\n      tag_3\n      jumpi\n      dup1\n      0x7476452a\n      eq\n      tag_4\n      jumpi\n      dup1\n      0xe1489191\n      eq\n      tag_5\n      jumpi\n      dup1\n      0xfc5f2b78\n      eq\n      tag_6\n      jumpi\n    tag_1:\n      revert(0x00, 0x00)\n        /* \"contracts/LinkShield.sol\":498:560  mapping(string =>  mapping (address => bool)) public hasAccess */\n    tag_2:\n      callvalue\n      dup1\n      iszero\n      tag_7\n      jumpi\n      revert(0x00, 0x00)\n    tag_7:\n      pop\n      tag_8\n      0x04\n      dup1\n      calldatasize\n      sub\n      dup2\n      add\n      swap1\n      tag_9\n      swap2\n      swap1\n      tag_10\n      jump\t// in\n    tag_9:\n      tag_11\n      jump\t// in\n    tag_8:\n      mload(0x40)\n      tag_12\n      swap2\n      swap1\n      tag_13\n      jump\t// in\n    tag_12:\n      mload(0x40)\n      dup1\n      swap2\n      sub\n      swap1\n      return\n        /* \"contracts/LinkShield.sol\":1142:1573  function payLink(string calldata linkId) public payable {... */\n    tag_3:\n      tag_14\n      0x04\n      dup1\n      calldatasize\n      sub\n      dup2\n      add\n      swap1\n      tag_15\n      swap2\n      swap1\n      tag_16\n      jump\t// in\n    tag_15:\n      tag_17\n      jump\t// in\n    tag_14:\n      stop\n        /* \"contracts/LinkShield.sol\":1581:1900  function getLink(string calldata linkId) public view returns (Link memory){... */\n    tag_4:\n      callvalue\n      dup1\n      iszero\n      tag_18\n      jumpi\n      revert(0x00, 0x00)\n    tag_18:\n      pop\n      tag_19\n      0x04\n      dup1\n      calldatasize\n      sub\n      dup2\n      add\n      swap1\n      tag_20\n      swap2\n      swap1\n      tag_16\n      jump\t// in\n    tag_20:\n      tag_21\n      jump\t// in\n    tag_19:\n      mload(0x40)\n      tag_22\n      swap2\n      swap1\n      tag_23\n      jump\t// in\n    tag_22:\n      mload(0x40)\n      dup1\n      swap2\n      sub\n      swap1\n      return\n        /* \"contracts/LinkShield.sol\":385:414  uint256 public commission = 2 */\n    tag_5:\n      callvalue\n      dup1\n      iszero\n      tag_24\n      jumpi\n      revert(0x00, 0x00)\n    tag_24:\n      pop\n      tag_25\n      tag_26\n      jump\t// in\n    tag_25:\n      mload(0x40)\n      tag_27\n      swap2\n      swap1\n      tag_28\n      jump\t// in\n    tag_27:\n      mload(0x40)\n      dup1\n      swap2\n      sub\n      swap1\n      return\n        /* \"contracts/LinkShield.sol\":569:1134  function addLink(string calldata url, string calldata linkId, uint256 fee) public {... */\n    tag_6:\n      callvalue\n      dup1\n      iszero\n      tag_29\n      jumpi\n      revert(0x00, 0x00)\n    tag_29:\n      pop\n      tag_30\n      0x04\n      dup1\n      calldatasize\n      sub\n      dup2\n      add\n      swap1\n      tag_31\n      swap2\n      swap1\n      tag_32\n      jump\t// in\n    tag_31:\n      tag_33\n      jump\t// in\n    tag_30:\n      stop\n        /* \"contracts/LinkShield.sol\":498:560  mapping(string =>  mapping (address => bool)) public hasAccess */\n    tag_11:\n      0x02\n      dup3\n      dup1\n      mload\n      0x20\n      dup2\n      add\n      dup3\n      add\n      dup1\n      mload\n      dup5\n      dup3\n      mstore\n      0x20\n      dup4\n      add\n      0x20\n      dup6\n      add\n      keccak256\n      dup2\n      dup4\n      mstore\n      dup1\n      swap6\n      pop\n      pop\n      pop\n      pop\n      pop\n      pop\n      0x20\n      mstore\n      dup1\n      0x00\n      mstore\n      keccak256(0x00, 0x40)\n      0x00\n      swap2\n      pop\n      swap2\n      pop\n      swap1\n      sload\n      swap1\n      0x0100\n      exp\n      swap1\n      div\n      0xff\n      and\n      dup2\n      jump\t// out\n        /* \"contracts/LinkShield.sol\":1142:1573  function payLink(string calldata linkId) public payable {... */\n    tag_17:\n        /* \"contracts/LinkShield.sol\":1209:1225  Link memory link */\n      0x00\n        /* \"contracts/LinkShield.sol\":1228:1233  links */\n      0x01\n        /* \"contracts/LinkShield.sol\":1234:1240  linkId */\n      dup4\n      dup4\n        /* \"contracts/LinkShield.sol\":1228:1241  links[linkId] */\n      mload(0x40)\n      tag_35\n      swap3\n      swap2\n      swap1\n      tag_36\n      jump\t// in\n    tag_35:\n      swap1\n      dup2\n      mstore\n      0x20\n      add\n      mload(0x40)\n      dup1\n      swap2\n      sub\n      swap1\n      keccak256\n        /* \"contracts/LinkShield.sol\":1209:1241  Link memory link = links[linkId] */\n      mload(0x40)\n      dup1\n      0x60\n      add\n      0x40\n      mstore\n      swap1\n      dup2\n      0x00\n      dup3\n      add\n      dup1\n      sload\n      tag_37\n      swap1\n      tag_38\n      jump\t// in\n    tag_37:\n      dup1\n      0x1f\n      add\n      0x20\n      dup1\n      swap2\n      div\n      mul\n      0x20\n      add\n      mload(0x40)\n      swap1\n      dup2\n      add\n      0x40\n      mstore\n      dup1\n      swap3\n      swap2\n      swap1\n      dup2\n      dup2\n      mstore\n      0x20\n      add\n      dup3\n      dup1\n      sload\n      tag_39\n      swap1\n      tag_38\n      jump\t// in\n    tag_39:\n      dup1\n      iszero\n      tag_40\n      jumpi\n      dup1\n      0x1f\n      lt\n      tag_41\n      jumpi\n      0x0100\n      dup1\n      dup4\n      sload\n      div\n      mul\n      dup4\n      mstore\n      swap2\n      0x20\n      add\n      swap2\n      jump(tag_40)\n    tag_41:\n      dup3\n      add\n      swap2\n      swap1\n      0x00\n      mstore\n      keccak256(0x00, 0x20)\n      swap1\n    tag_42:\n      dup2\n      sload\n      dup2\n      mstore\n      swap1\n      0x01\n      add\n      swap1\n      0x20\n      add\n      dup1\n      dup4\n      gt\n      tag_42\n      jumpi\n      dup3\n      swap1\n      sub\n      0x1f\n      and\n      dup3\n      add\n      swap2\n    tag_40:\n      pop\n      pop\n      pop\n      pop\n      pop\n      dup2\n      mstore\n      0x20\n      add\n      0x01\n      dup3\n      add\n      0x00\n      swap1\n      sload\n      swap1\n      0x0100\n      exp\n      swap1\n      div\n      0xffffffffffffffffffffffffffffffffffffffff\n      and\n      0xffffffffffffffffffffffffffffffffffffffff\n      and\n      0xffffffffffffffffffffffffffffffffffffffff\n      and\n      dup2\n      mstore\n      0x20\n      add\n      0x02\n      dup3\n      add\n      sload\n      dup2\n      mstore\n      pop\n      pop\n      swap1\n      pop\n        /* \"contracts/LinkShield.sol\":1282:1283  0 */\n      0x00\n        /* \"contracts/LinkShield.sol\":1260:1284  link.owner != address(0) */\n      0xffffffffffffffffffffffffffffffffffffffff\n      and\n        /* \"contracts/LinkShield.sol\":1260:1264  link */\n      dup2\n        /* \"contracts/LinkShield.sol\":1260:1270  link.owner */\n      0x20\n      add\n      mload\n        /* \"contracts/LinkShield.sol\":1260:1284  link.owner != address(0) */\n      0xffffffffffffffffffffffffffffffffffffffff\n      and\n      sub\n        /* \"contracts/LinkShield.sol\":1252:1303  require(link.owner != address(0), \"Link not found\") */\n      tag_43\n      jumpi\n      mload(0x40)\n      0x08c379a000000000000000000000000000000000000000000000000000000000\n      dup2\n      mstore\n      0x04\n      add\n      tag_44\n      swap1\n      tag_45\n      jump\t// in\n    tag_44:\n      mload(0x40)\n      dup1\n      swap2\n      sub\n      swap1\n      revert\n    tag_43:\n        /* \"contracts/LinkShield.sol\":1355:1360  false */\n      0x00\n        /* \"contracts/LinkShield.sol\":1322:1360  hasAccess[linkId][msg.sender] == false */\n      iszero\n      iszero\n        /* \"contracts/LinkShield.sol\":1322:1331  hasAccess */\n      0x02\n        /* \"contracts/LinkShield.sol\":1332:1338  linkId */\n      dup5\n      dup5\n        /* \"contracts/LinkShield.sol\":1322:1339  hasAccess[linkId] */\n      mload(0x40)\n      tag_46\n      swap3\n      swap2\n      swap1\n      tag_36\n      jump\t// in\n    tag_46:\n      swap1\n      dup2\n      mstore\n      0x20\n      add\n      mload(0x40)\n      dup1\n      swap2\n      sub\n      swap1\n      keccak256\n        /* \"contracts/LinkShield.sol\":1322:1351  hasAccess[linkId][msg.sender] */\n      0x00\n        /* \"contracts/LinkShield.sol\":1340:1350  msg.sender */\n      caller\n        /* \"contracts/LinkShield.sol\":1322:1351  hasAccess[linkId][msg.sender] */\n      0xffffffffffffffffffffffffffffffffffffffff\n      and\n      0xffffffffffffffffffffffffffffffffffffffff\n      and\n      dup2\n      mstore\n      0x20\n      add\n      swap1\n      dup2\n      mstore\n      0x20\n      add\n      0x00\n      keccak256\n      0x00\n      swap1\n      sload\n      swap1\n      0x0100\n      exp\n      swap1\n      div\n      0xff\n      and\n        /* \"contracts/LinkShield.sol\":1322:1360  hasAccess[linkId][msg.sender] == false */\n      iszero\n      iszero\n      eq\n        /* \"contracts/LinkShield.sol\":1314:1388  require(hasAccess[linkId][msg.sender] == false, \"You already have access\") */\n      tag_47\n      jumpi\n      mload(0x40)\n      0x08c379a000000000000000000000000000000000000000000000000000000000\n      dup2\n      mstore\n      0x04\n      add\n      tag_48\n      swap1\n      tag_49\n      jump\t// in\n    tag_48:\n      mload(0x40)\n      dup1\n      swap2\n      sub\n      swap1\n      revert\n    tag_47:\n        /* \"contracts/LinkShield.sol\":1420:1424  link */\n      dup1\n        /* \"contracts/LinkShield.sol\":1420:1428  link.fee */\n      0x40\n      add\n      mload\n        /* \"contracts/LinkShield.sol\":1407:1416  msg.value */\n      callvalue\n        /* \"contracts/LinkShield.sol\":1407:1428  msg.value >= link.fee */\n      lt\n      iszero\n        /* \"contracts/LinkShield.sol\":1399:1453  require(msg.value >= link.fee, \"Insufficient payment\") */\n      tag_50\n      jumpi\n      mload(0x40)\n      0x08c379a000000000000000000000000000000000000000000000000000000000\n      dup2\n      mstore\n      0x04\n      add\n      tag_51\n      swap1\n      tag_52\n      jump\t// in\n    tag_51:\n      mload(0x40)\n      dup1\n      swap2\n      sub\n      swap1\n      revert\n    tag_50:\n        /* \"contracts/LinkShield.sol\":1498:1502  true */\n      0x01\n        /* \"contracts/LinkShield.sol\":1466:1475  hasAccess */\n      0x02\n        /* \"contracts/LinkShield.sol\":1476:1482  linkId */\n      dup5\n      dup5\n        /* \"contracts/LinkShield.sol\":1466:1483  hasAccess[linkId] */\n      mload(0x40)\n      tag_53\n      swap3\n      swap2\n      swap1\n      tag_36\n      jump\t// in\n    tag_53:\n      swap1\n      dup2\n      mstore\n      0x20\n      add\n      mload(0x40)\n      dup1\n      swap2\n      sub\n      swap1\n      keccak256\n        /* \"contracts/LinkShield.sol\":1466:1495  hasAccess[linkId][msg.sender] */\n      0x00\n        /* \"contracts/LinkShield.sol\":1484:1494  msg.sender */\n      caller\n        /* \"contracts/LinkShield.sol\":1466:1495  hasAccess[linkId][msg.sender] */\n      0xffffffffffffffffffffffffffffffffffffffff\n      and\n      0xffffffffffffffffffffffffffffffffffffffff\n      and\n      dup2\n      mstore\n      0x20\n      add\n      swap1\n      dup2\n      mstore\n      0x20\n      add\n      0x00\n      keccak256\n      0x00\n        /* \"contracts/LinkShield.sol\":1466:1502  hasAccess[linkId][msg.sender] = true */\n      0x0100\n      exp\n      dup2\n      sload\n      dup2\n      0xff\n      mul\n      not\n      and\n      swap1\n      dup4\n      iszero\n      iszero\n      mul\n      or\n      swap1\n      sstore\n      pop\n        /* \"contracts/LinkShield.sol\":1521:1525  link */\n      dup1\n        /* \"contracts/LinkShield.sol\":1521:1531  link.owner */\n      0x20\n      add\n      mload\n        /* \"contracts/LinkShield.sol\":1513:1541  payable(link.owner).transfer */\n      0xffffffffffffffffffffffffffffffffffffffff\n      and\n        /* \"contracts/LinkShield.sol\":1513:1565  payable(link.owner).transfer(msg.value - commission) */\n      0x08fc\n        /* \"contracts/LinkShield.sol\":1554:1564  commission */\n      sload(0x00)\n        /* \"contracts/LinkShield.sol\":1542:1551  msg.value */\n      callvalue\n        /* \"contracts/LinkShield.sol\":1542:1564  msg.value - commission */\n      tag_54\n      swap2\n      swap1\n      tag_55\n      jump\t// in\n    tag_54:\n        /* \"contracts/LinkShield.sol\":1513:1565  payable(link.owner).transfer(msg.value - commission) */\n      swap1\n      dup2\n      iszero\n      mul\n      swap1\n      mload(0x40)\n      0x00\n      mload(0x40)\n      dup1\n      dup4\n      sub\n      dup2\n      dup6\n      dup9\n      dup9\n      call\n      swap4\n      pop\n      pop\n      pop\n      pop\n      iszero\n      dup1\n      iszero\n      tag_57\n      jumpi\n      returndatacopy(0x00, 0x00, returndatasize)\n      revert(0x00, returndatasize)\n    tag_57:\n      pop\n        /* \"contracts/LinkShield.sol\":1198:1573  {... */\n      pop\n        /* \"contracts/LinkShield.sol\":1142:1573  function payLink(string calldata linkId) public payable {... */\n      pop\n      pop\n      jump\t// out\n        /* \"contracts/LinkShield.sol\":1581:1900  function getLink(string calldata linkId) public view returns (Link memory){... */\n    tag_21:\n        /* \"contracts/LinkShield.sol\":1643:1654  Link memory */\n      tag_58\n      tag_59\n      jump\t// in\n    tag_58:\n        /* \"contracts/LinkShield.sol\":1666:1682  Link memory link */\n      0x00\n        /* \"contracts/LinkShield.sol\":1685:1690  links */\n      0x01\n        /* \"contracts/LinkShield.sol\":1691:1697  linkId */\n      dup5\n      dup5\n        /* \"contracts/LinkShield.sol\":1685:1698  links[linkId] */\n      mload(0x40)\n      tag_61\n      swap3\n      swap2\n      swap1\n      tag_36\n      jump\t// in\n    tag_61:\n      swap1\n      dup2\n      mstore\n      0x20\n      add\n      mload(0x40)\n      dup1\n      swap2\n      sub\n      swap1\n      keccak256\n        /* \"contracts/LinkShield.sol\":1666:1698  Link memory link = links[linkId] */\n      mload(0x40)\n      dup1\n      0x60\n      add\n      0x40\n      mstore\n      swap1\n      dup2\n      0x00\n      dup3\n      add\n      dup1\n      sload\n      tag_62\n      swap1\n      tag_38\n      jump\t// in\n    tag_62:\n      dup1\n      0x1f\n      add\n      0x20\n      dup1\n      swap2\n      div\n      mul\n      0x20\n      add\n      mload(0x40)\n      swap1\n      dup2\n      add\n      0x40\n      mstore\n      dup1\n      swap3\n      swap2\n      swap1\n      dup2\n      dup2\n      mstore\n      0x20\n      add\n      dup3\n      dup1\n      sload\n      tag_63\n      swap1\n      tag_38\n      jump\t// in\n    tag_63:\n      dup1\n      iszero\n      tag_64\n      jumpi\n      dup1\n      0x1f\n      lt\n      tag_65\n      jumpi\n      0x0100\n      dup1\n      dup4\n      sload\n      div\n      mul\n      dup4\n      mstore\n      swap2\n      0x20\n      add\n      swap2\n      jump(tag_64)\n    tag_65:\n      dup3\n      add\n      swap2\n      swap1\n      0x00\n      mstore\n      keccak256(0x00, 0x20)\n      swap1\n    tag_66:\n      dup2\n      sload\n      dup2\n      mstore\n      swap1\n      0x01\n      add\n      swap1\n      0x20\n      add\n      dup1\n      dup4\n      gt\n      tag_66\n      jumpi\n      dup3\n      swap1\n      sub\n      0x1f\n      and\n      dup3\n      add\n      swap2\n    tag_64:\n      pop\n      pop\n      pop\n      pop\n      pop\n      dup2\n      mstore\n      0x20\n      add\n      0x01\n      dup3\n      add\n      0x00\n      swap1\n      sload\n      swap1\n      0x0100\n      exp\n      swap1\n      div\n      0xffffffffffffffffffffffffffffffffffffffff\n      and\n      0xffffffffffffffffffffffffffffffffffffffff\n      and\n      0xffffffffffffffffffffffffffffffffffffffff\n      and\n      dup2\n      mstore\n      0x20\n      add\n      0x02\n      dup3\n      add\n      sload\n      dup2\n      mstore\n      pop\n      pop\n      swap1\n      pop\n        /* \"contracts/LinkShield.sol\":1724:1725  0 */\n      0x00\n        /* \"contracts/LinkShield.sol\":1712:1716  link */\n      dup2\n        /* \"contracts/LinkShield.sol\":1712:1720  link.fee */\n      0x40\n      add\n      mload\n        /* \"contracts/LinkShield.sol\":1712:1725  link.fee == 0 */\n      sub\n        /* \"contracts/LinkShield.sol\":1709:1738  if(link.fee == 0) return link */\n      tag_67\n      jumpi\n        /* \"contracts/LinkShield.sol\":1734:1738  link */\n      dup1\n        /* \"contracts/LinkShield.sol\":1727:1738  return link */\n      swap2\n      pop\n      pop\n      jump(tag_60)\n        /* \"contracts/LinkShield.sol\":1709:1738  if(link.fee == 0) return link */\n    tag_67:\n        /* \"contracts/LinkShield.sol\":1835:1840  false */\n      0x00\n        /* \"contracts/LinkShield.sol\":1802:1840  hasAccess[linkId][msg.sender] == false */\n      iszero\n      iszero\n        /* \"contracts/LinkShield.sol\":1802:1811  hasAccess */\n      0x02\n        /* \"contracts/LinkShield.sol\":1812:1818  linkId */\n      dup6\n      dup6\n        /* \"contracts/LinkShield.sol\":1802:1819  hasAccess[linkId] */\n      mload(0x40)\n      tag_68\n      swap3\n      swap2\n      swap1\n      tag_36\n      jump\t// in\n    tag_68:\n      swap1\n      dup2\n      mstore\n      0x20\n      add\n      mload(0x40)\n      dup1\n      swap2\n      sub\n      swap1\n      keccak256\n        /* \"contracts/LinkShield.sol\":1802:1831  hasAccess[linkId][msg.sender] */\n      0x00\n        /* \"contracts/LinkShield.sol\":1820:1830  msg.sender */\n      caller\n        /* \"contracts/LinkShield.sol\":1802:1831  hasAccess[linkId][msg.sender] */\n      0xffffffffffffffffffffffffffffffffffffffff\n      and\n      0xffffffffffffffffffffffffffffffffffffffff\n      and\n      dup2\n      mstore\n      0x20\n      add\n      swap1\n      dup2\n      mstore\n      0x20\n      add\n      0x00\n      keccak256\n      0x00\n      swap1\n      sload\n      swap1\n      0x0100\n      exp\n      swap1\n      div\n      0xff\n      and\n        /* \"contracts/LinkShield.sol\":1802:1840  hasAccess[linkId][msg.sender] == false */\n      iszero\n      iszero\n      sub\n        /* \"contracts/LinkShield.sol\":1799:1868  if(hasAccess[linkId][msg.sender] == false)... */\n      tag_69\n      jumpi\n        /* \"contracts/LinkShield.sol\":1855:1868  link.url = \"\" */\n      mload(0x40)\n      dup1\n      0x20\n      add\n      0x40\n      mstore\n      dup1\n      0x00\n      dup2\n      mstore\n      pop\n        /* \"contracts/LinkShield.sol\":1855:1859  link */\n      dup2\n        /* \"contracts/LinkShield.sol\":1855:1863  link.url */\n      0x00\n      add\n        /* \"contracts/LinkShield.sol\":1855:1868  link.url = \"\" */\n      dup2\n      swap1\n      mstore\n      pop\n        /* \"contracts/LinkShield.sol\":1799:1868  if(hasAccess[linkId][msg.sender] == false)... */\n    tag_69:\n        /* \"contracts/LinkShield.sol\":1888:1892  link */\n      dup1\n        /* \"contracts/LinkShield.sol\":1881:1892  return link */\n      swap2\n      pop\n      pop\n        /* \"contracts/LinkShield.sol\":1581:1900  function getLink(string calldata linkId) public view returns (Link memory){... */\n    tag_60:\n      swap3\n      swap2\n      pop\n      pop\n      jump\t// out\n        /* \"contracts/LinkShield.sol\":385:414  uint256 public commission = 2 */\n    tag_26:\n      sload(0x00)\n      dup2\n      jump\t// out\n        /* \"contracts/LinkShield.sol\":569:1134  function addLink(string calldata url, string calldata linkId, uint256 fee) public {... */\n    tag_33:\n        /* \"contracts/LinkShield.sol\":662:678  Link memory link */\n      0x00\n        /* \"contracts/LinkShield.sol\":681:686  links */\n      0x01\n        /* \"contracts/LinkShield.sol\":687:693  linkId */\n      dup5\n      dup5\n        /* \"contracts/LinkShield.sol\":681:694  links[linkId] */\n      mload(0x40)\n      tag_71\n      swap3\n      swap2\n      swap1\n      tag_36\n      jump\t// in\n    tag_71:\n      swap1\n      dup2\n      mstore\n      0x20\n      add\n      mload(0x40)\n      dup1\n      swap2\n      sub\n      swap1\n      keccak256\n        /* \"contracts/LinkShield.sol\":662:694  Link memory link = links[linkId] */\n      mload(0x40)\n      dup1\n      0x60\n      add\n      0x40\n      mstore\n      swap1\n      dup2\n      0x00\n      dup3\n      add\n      dup1\n      sload\n      tag_72\n      swap1\n      tag_38\n      jump\t// in\n    tag_72:\n      dup1\n      0x1f\n      add\n      0x20\n      dup1\n      swap2\n      div\n      mul\n      0x20\n      add\n      mload(0x40)\n      swap1\n      dup2\n      add\n      0x40\n      mstore\n      dup1\n      swap3\n      swap2\n      swap1\n      dup2\n      dup2\n      mstore\n      0x20\n      add\n      dup3\n      dup1\n      sload\n      tag_73\n      swap1\n      tag_38\n      jump\t// in\n    tag_73:\n      dup1\n      iszero\n      tag_74\n      jumpi\n      dup1\n      0x1f\n      lt\n      tag_75\n      jumpi\n      0x0100\n      dup1\n      dup4\n      sload\n      div\n      mul\n      dup4\n      mstore\n      swap2\n      0x20\n      add\n      swap2\n      jump(tag_74)\n    tag_75:\n      dup3\n      add\n      swap2\n      swap1\n      0x00\n      mstore\n      keccak256(0x00, 0x20)\n      swap1\n    tag_76:\n      dup2\n      sload\n      dup2\n      mstore\n      swap1\n      0x01\n      add\n      swap1\n      0x20\n      add\n      dup1\n      dup4\n      gt\n      tag_76\n      jumpi\n      dup3\n      swap1\n      sub\n      0x1f\n      and\n      dup3\n      add\n      swap2\n    tag_74:\n      pop\n      pop\n      pop\n      pop\n      pop\n      dup2\n      mstore\n      0x20\n      add\n      0x01\n      dup3\n      add\n      0x00\n      swap1\n      sload\n      swap1\n      0x0100\n      exp\n      swap1\n      div\n      0xffffffffffffffffffffffffffffffffffffffff\n      and\n      0xffffffffffffffffffffffffffffffffffffffff\n      and\n      0xffffffffffffffffffffffffffffffffffffffff\n      and\n      dup2\n      mstore\n      0x20\n      add\n      0x02\n      dup3\n      add\n      sload\n      dup2\n      mstore\n      pop\n      pop\n      swap1\n      pop\n        /* \"contracts/LinkShield.sol\":735:736  0 */\n      0x00\n        /* \"contracts/LinkShield.sol\":713:737  link.owner == address(0) */\n      0xffffffffffffffffffffffffffffffffffffffff\n      and\n        /* \"contracts/LinkShield.sol\":713:717  link */\n      dup2\n        /* \"contracts/LinkShield.sol\":713:723  link.owner */\n      0x20\n      add\n      mload\n        /* \"contracts/LinkShield.sol\":713:737  link.owner == address(0) */\n      0xffffffffffffffffffffffffffffffffffffffff\n      and\n      eq\n        /* \"contracts/LinkShield.sol\":713:765  link.owner == address(0) || link.owner == msg.sender */\n      dup1\n      tag_77\n      jumpi\n      pop\n        /* \"contracts/LinkShield.sol\":755:765  msg.sender */\n      caller\n        /* \"contracts/LinkShield.sol\":741:765  link.owner == msg.sender */\n      0xffffffffffffffffffffffffffffffffffffffff\n      and\n        /* \"contracts/LinkShield.sol\":741:745  link */\n      dup2\n        /* \"contracts/LinkShield.sol\":741:751  link.owner */\n      0x20\n      add\n      mload\n        /* \"contracts/LinkShield.sol\":741:765  link.owner == msg.sender */\n      0xffffffffffffffffffffffffffffffffffffffff\n      and\n      eq\n        /* \"contracts/LinkShield.sol\":713:765  link.owner == address(0) || link.owner == msg.sender */\n    tag_77:\n        /* \"contracts/LinkShield.sol\":705:801  require(link.owner == address(0) || link.owner == msg.sender, \"This linkId alread has an owner\") */\n      tag_78\n      jumpi\n      mload(0x40)\n      0x08c379a000000000000000000000000000000000000000000000000000000000\n      dup2\n      mstore\n      0x04\n      add\n      tag_79\n      swap1\n      tag_80\n      jump\t// in\n    tag_79:\n      mload(0x40)\n      dup1\n      swap2\n      sub\n      swap1\n      revert\n    tag_78:\n        /* \"contracts/LinkShield.sol\":827:828  0 */\n      0x00\n        /* \"contracts/LinkShield.sol\":820:823  fee */\n      dup3\n        /* \"contracts/LinkShield.sol\":820:828  fee == 0 */\n      eq\n        /* \"contracts/LinkShield.sol\":820:848  fee == 0 || fee > commission */\n      dup1\n      tag_81\n      jumpi\n      pop\n        /* \"contracts/LinkShield.sol\":838:848  commission */\n      sload(0x00)\n        /* \"contracts/LinkShield.sol\":832:835  fee */\n      dup3\n        /* \"contracts/LinkShield.sol\":832:848  fee > commission */\n      gt\n        /* \"contracts/LinkShield.sol\":820:848  fee == 0 || fee > commission */\n    tag_81:\n        /* \"contracts/LinkShield.sol\":812:863  require(fee == 0 || fee > commission, \"Fee to low\") */\n      tag_82\n      jumpi\n      mload(0x40)\n      0x08c379a000000000000000000000000000000000000000000000000000000000\n      dup2\n      mstore\n      0x04\n      add\n      tag_83\n      swap1\n      tag_84\n      jump\t// in\n    tag_83:\n      mload(0x40)\n      dup1\n      swap2\n      sub\n      swap1\n      revert\n    tag_82:\n        /* \"contracts/LinkShield.sol\":895:898  url */\n      dup6\n      dup6\n        /* \"contracts/LinkShield.sol\":884:898  link.url = url */\n      dup1\n      dup1\n      0x1f\n      add\n      0x20\n      dup1\n      swap2\n      div\n      mul\n      0x20\n      add\n      mload(0x40)\n      swap1\n      dup2\n      add\n      0x40\n      mstore\n      dup1\n      swap4\n      swap3\n      swap2\n      swap1\n      dup2\n      dup2\n      mstore\n      0x20\n      add\n      dup4\n      dup4\n      dup1\n      dup3\n      dup5\n      calldatacopy\n      0x00\n      dup2\n      dup5\n      add\n      mstore\n      not(0x1f)\n      0x1f\n      dup3\n      add\n      and\n      swap1\n      pop\n      dup1\n      dup4\n      add\n      swap3\n      pop\n      pop\n      pop\n      pop\n      pop\n      pop\n      pop\n        /* \"contracts/LinkShield.sol\":884:888  link */\n      dup2\n        /* \"contracts/LinkShield.sol\":884:892  link.url */\n      0x00\n      add\n        /* \"contracts/LinkShield.sol\":884:898  link.url = url */\n      dup2\n      swap1\n      mstore\n      pop\n        /* \"contracts/LinkShield.sol\":920:923  fee */\n      dup2\n        /* \"contracts/LinkShield.sol\":909:913  link */\n      dup2\n        /* \"contracts/LinkShield.sol\":909:917  link.fee */\n      0x40\n      add\n        /* \"contracts/LinkShield.sol\":909:923  link.fee = fee */\n      dup2\n      dup2\n      mstore\n      pop\n      pop\n        /* \"contracts/LinkShield.sol\":947:957  msg.sender */\n      caller\n        /* \"contracts/LinkShield.sol\":934:938  link */\n      dup2\n        /* \"contracts/LinkShield.sol\":934:944  link.owner */\n      0x20\n      add\n        /* \"contracts/LinkShield.sol\":934:957  link.owner = msg.sender */\n      swap1\n      0xffffffffffffffffffffffffffffffffffffffff\n      and\n      swap1\n      dup2\n      0xffffffffffffffffffffffffffffffffffffffff\n      and\n      dup2\n      mstore\n      pop\n      pop\n        /* \"contracts/LinkShield.sol\":994:998  link */\n      dup1\n        /* \"contracts/LinkShield.sol\":978:983  links */\n      0x01\n        /* \"contracts/LinkShield.sol\":984:990  linkId */\n      dup6\n      dup6\n        /* \"contracts/LinkShield.sol\":978:991  links[linkId] */\n      mload(0x40)\n      tag_85\n      swap3\n      swap2\n      swap1\n      tag_36\n      jump\t// in\n    tag_85:\n      swap1\n      dup2\n      mstore\n      0x20\n      add\n      mload(0x40)\n      dup1\n      swap2\n      sub\n      swap1\n      keccak256\n        /* \"contracts/LinkShield.sol\":978:998  links[linkId] = link */\n      0x00\n      dup3\n      add\n      mload\n      dup2\n      0x00\n      add\n      swap1\n      dup2\n      tag_86\n      swap2\n      swap1\n      tag_87\n      jump\t// in\n    tag_86:\n      pop\n      0x20\n      dup3\n      add\n      mload\n      dup2\n      0x01\n      add\n      exp(0x0100, 0x00)\n      dup2\n      sload\n      dup2\n      0xffffffffffffffffffffffffffffffffffffffff\n      mul\n      not\n      and\n      swap1\n      dup4\n      0xffffffffffffffffffffffffffffffffffffffff\n      and\n      mul\n      or\n      swap1\n      sstore\n      pop\n      0x40\n      dup3\n      add\n      mload\n      dup2\n      0x02\n      add\n      sstore\n      swap1\n      pop\n      pop\n        /* \"contracts/LinkShield.sol\":1122:1126  true */\n      0x01\n        /* \"contracts/LinkShield.sol\":1090:1099  hasAccess */\n      0x02\n        /* \"contracts/LinkShield.sol\":1100:1106  linkId */\n      dup6\n      dup6\n        /* \"contracts/LinkShield.sol\":1090:1107  hasAccess[linkId] */\n      mload(0x40)\n      tag_88\n      swap3\n      swap2\n      swap1\n      tag_36\n      jump\t// in\n    tag_88:\n      swap1\n      dup2\n      mstore\n      0x20\n      add\n      mload(0x40)\n      dup1\n      swap2\n      sub\n      swap1\n      keccak256\n        /* \"contracts/LinkShield.sol\":1090:1119  hasAccess[linkId][msg.sender] */\n      0x00\n        /* \"contracts/LinkShield.sol\":1108:1118  msg.sender */\n      caller\n        /* \"contracts/LinkShield.sol\":1090:1119  hasAccess[linkId][msg.sender] */\n      0xffffffffffffffffffffffffffffffffffffffff\n      and\n      0xffffffffffffffffffffffffffffffffffffffff\n      and\n      dup2\n      mstore\n      0x20\n      add\n      swap1\n      dup2\n      mstore\n      0x20\n      add\n      0x00\n      keccak256\n      0x00\n        /* \"contracts/LinkShield.sol\":1090:1126  hasAccess[linkId][msg.sender] = true */\n      0x0100\n      exp\n      dup2\n      sload\n      dup2\n      0xff\n      mul\n      not\n      and\n      swap1\n      dup4\n      iszero\n      iszero\n      mul\n      or\n      swap1\n      sstore\n      pop\n        /* \"contracts/LinkShield.sol\":651:1134  {... */\n      pop\n        /* \"contracts/LinkShield.sol\":569:1134  function addLink(string calldata url, string calldata linkId, uint256 fee) public {... */\n      pop\n      pop\n      pop\n      pop\n      pop\n      jump\t// out\n    tag_59:\n      mload(0x40)\n      dup1\n      0x60\n      add\n      0x40\n      mstore\n      dup1\n      0x60\n      dup2\n      mstore\n      0x20\n      add\n      and(0xffffffffffffffffffffffffffffffffffffffff, 0x00)\n      dup2\n      mstore\n      0x20\n      add\n      0x00\n      dup2\n      mstore\n      pop\n      swap1\n      jump\t// out\n        /* \"#utility.yul\":7:82   */\n    tag_89:\n        /* \"#utility.yul\":40:46   */\n      0x00\n        /* \"#utility.yul\":73:75   */\n      0x40\n        /* \"#utility.yul\":67:76   */\n      mload\n        /* \"#utility.yul\":57:76   */\n      swap1\n      pop\n        /* \"#utility.yul\":7:82   */\n      swap1\n      jump\t// out\n        /* \"#utility.yul\":88:205   */\n    tag_90:\n        /* \"#utility.yul\":197:198   */\n      0x00\n        /* \"#utility.yul\":194:195   */\n      0x00\n        /* \"#utility.yul\":187:199   */\n      revert\n        /* \"#utility.yul\":211:328   */\n    tag_91:\n        /* \"#utility.yul\":320:321   */\n      0x00\n        /* \"#utility.yul\":317:318   */\n      0x00\n        /* \"#utility.yul\":310:322   */\n      revert\n        /* \"#utility.yul\":334:451   */\n    tag_92:\n        /* \"#utility.yul\":443:444   */\n      0x00\n        /* \"#utility.yul\":440:441   */\n      0x00\n        /* \"#utility.yul\":433:445   */\n      revert\n        /* \"#utility.yul\":457:574   */\n    tag_93:\n        /* \"#utility.yul\":566:567   */\n      0x00\n        /* \"#utility.yul\":563:564   */\n      0x00\n        /* \"#utility.yul\":556:568   */\n      revert\n        /* \"#utility.yul\":580:682   */\n    tag_94:\n        /* \"#utility.yul\":621:627   */\n      0x00\n        /* \"#utility.yul\":672:674   */\n      0x1f\n        /* \"#utility.yul\":668:675   */\n      not\n        /* \"#utility.yul\":663:665   */\n      0x1f\n        /* \"#utility.yul\":656:661   */\n      dup4\n        /* \"#utility.yul\":652:666   */\n      add\n        /* \"#utility.yul\":648:676   */\n      and\n        /* \"#utility.yul\":638:676   */\n      swap1\n      pop\n        /* \"#utility.yul\":580:682   */\n      swap2\n      swap1\n      pop\n      jump\t// out\n        /* \"#utility.yul\":688:868   */\n    tag_95:\n        /* \"#utility.yul\":736:813   */\n      0x4e487b7100000000000000000000000000000000000000000000000000000000\n        /* \"#utility.yul\":733:734   */\n      0x00\n        /* \"#utility.yul\":726:814   */\n      mstore\n        /* \"#utility.yul\":833:837   */\n      0x41\n        /* \"#utility.yul\":830:831   */\n      0x04\n        /* \"#utility.yul\":823:838   */\n      mstore\n        /* \"#utility.yul\":857:861   */\n      0x24\n        /* \"#utility.yul\":854:855   */\n      0x00\n        /* \"#utility.yul\":847:862   */\n      revert\n        /* \"#utility.yul\":874:1155   */\n    tag_96:\n        /* \"#utility.yul\":957:984   */\n      tag_161\n        /* \"#utility.yul\":979:983   */\n      dup3\n        /* \"#utility.yul\":957:984   */\n      tag_94\n      jump\t// in\n    tag_161:\n        /* \"#utility.yul\":949:955   */\n      dup2\n        /* \"#utility.yul\":945:985   */\n      add\n        /* \"#utility.yul\":1087:1093   */\n      dup2\n        /* \"#utility.yul\":1075:1085   */\n      dup2\n        /* \"#utility.yul\":1072:1094   */\n      lt\n        /* \"#utility.yul\":1051:1069   */\n      0xffffffffffffffff\n        /* \"#utility.yul\":1039:1049   */\n      dup3\n        /* \"#utility.yul\":1036:1070   */\n      gt\n        /* \"#utility.yul\":1033:1095   */\n      or\n        /* \"#utility.yul\":1030:1118   */\n      iszero\n      tag_162\n      jumpi\n        /* \"#utility.yul\":1098:1116   */\n      tag_163\n      tag_95\n      jump\t// in\n    tag_163:\n        /* \"#utility.yul\":1030:1118   */\n    tag_162:\n        /* \"#utility.yul\":1138:1148   */\n      dup1\n        /* \"#utility.yul\":1134:1136   */\n      0x40\n        /* \"#utility.yul\":1127:1149   */\n      mstore\n        /* \"#utility.yul\":917:1155   */\n      pop\n        /* \"#utility.yul\":874:1155   */\n      pop\n      pop\n      jump\t// out\n        /* \"#utility.yul\":1161:1290   */\n    tag_97:\n        /* \"#utility.yul\":1195:1201   */\n      0x00\n        /* \"#utility.yul\":1222:1242   */\n      tag_165\n      tag_89\n      jump\t// in\n    tag_165:\n        /* \"#utility.yul\":1212:1242   */\n      swap1\n      pop\n        /* \"#utility.yul\":1251:1284   */\n      tag_166\n        /* \"#utility.yul\":1279:1283   */\n      dup3\n        /* \"#utility.yul\":1271:1277   */\n      dup3\n        /* \"#utility.yul\":1251:1284   */\n      tag_96\n      jump\t// in\n    tag_166:\n        /* \"#utility.yul\":1161:1290   */\n      swap2\n      swap1\n      pop\n      jump\t// out\n        /* \"#utility.yul\":1296:1604   */\n    tag_98:\n        /* \"#utility.yul\":1358:1362   */\n      0x00\n        /* \"#utility.yul\":1448:1466   */\n      0xffffffffffffffff\n        /* \"#utility.yul\":1440:1446   */\n      dup3\n        /* \"#utility.yul\":1437:1467   */\n      gt\n        /* \"#utility.yul\":1434:1490   */\n      iszero\n      tag_168\n      jumpi\n        /* \"#utility.yul\":1470:1488   */\n      tag_169\n      tag_95\n      jump\t// in\n    tag_169:\n        /* \"#utility.yul\":1434:1490   */\n    tag_168:\n        /* \"#utility.yul\":1508:1537   */\n      tag_170\n        /* \"#utility.yul\":1530:1536   */\n      dup3\n        /* \"#utility.yul\":1508:1537   */\n      tag_94\n      jump\t// in\n    tag_170:\n        /* \"#utility.yul\":1500:1537   */\n      swap1\n      pop\n        /* \"#utility.yul\":1592:1596   */\n      0x20\n        /* \"#utility.yul\":1586:1590   */\n      dup2\n        /* \"#utility.yul\":1582:1597   */\n      add\n        /* \"#utility.yul\":1574:1597   */\n      swap1\n      pop\n        /* \"#utility.yul\":1296:1604   */\n      swap2\n      swap1\n      pop\n      jump\t// out\n        /* \"#utility.yul\":1610:1758   */\n    tag_99:\n        /* \"#utility.yul\":1708:1714   */\n      dup3\n        /* \"#utility.yul\":1703:1706   */\n      dup2\n        /* \"#utility.yul\":1698:1701   */\n      dup4\n        /* \"#utility.yul\":1685:1715   */\n      calldatacopy\n        /* \"#utility.yul\":1749:1750   */\n      0x00\n        /* \"#utility.yul\":1740:1746   */\n      dup4\n        /* \"#utility.yul\":1735:1738   */\n      dup4\n        /* \"#utility.yul\":1731:1747   */\n      add\n        /* \"#utility.yul\":1724:1751   */\n      mstore\n        /* \"#utility.yul\":1610:1758   */\n      pop\n      pop\n      pop\n      jump\t// out\n        /* \"#utility.yul\":1764:2189   */\n    tag_100:\n        /* \"#utility.yul\":1842:1847   */\n      0x00\n        /* \"#utility.yul\":1867:1933   */\n      tag_173\n        /* \"#utility.yul\":1883:1932   */\n      tag_174\n        /* \"#utility.yul\":1925:1931   */\n      dup5\n        /* \"#utility.yul\":1883:1932   */\n      tag_98\n      jump\t// in\n    tag_174:\n        /* \"#utility.yul\":1867:1933   */\n      tag_97\n      jump\t// in\n    tag_173:\n        /* \"#utility.yul\":1858:1933   */\n      swap1\n      pop\n        /* \"#utility.yul\":1956:1962   */\n      dup3\n        /* \"#utility.yul\":1949:1954   */\n      dup2\n        /* \"#utility.yul\":1942:1963   */\n      mstore\n        /* \"#utility.yul\":1994:1998   */\n      0x20\n        /* \"#utility.yul\":1987:1992   */\n      dup2\n        /* \"#utility.yul\":1983:1999   */\n      add\n        /* \"#utility.yul\":2032:2035   */\n      dup5\n        /* \"#utility.yul\":2023:2029   */\n      dup5\n        /* \"#utility.yul\":2018:2021   */\n      dup5\n        /* \"#utility.yul\":2014:2030   */\n      add\n        /* \"#utility.yul\":2011:2036   */\n      gt\n        /* \"#utility.yul\":2008:2120   */\n      iszero\n      tag_175\n      jumpi\n        /* \"#utility.yul\":2039:2118   */\n      tag_176\n      tag_93\n      jump\t// in\n    tag_176:\n        /* \"#utility.yul\":2008:2120   */\n    tag_175:\n        /* \"#utility.yul\":2129:2183   */\n      tag_177\n        /* \"#utility.yul\":2176:2182   */\n      dup5\n        /* \"#utility.yul\":2171:2174   */\n      dup3\n        /* \"#utility.yul\":2166:2169   */\n      dup6\n        /* \"#utility.yul\":2129:2183   */\n      tag_99\n      jump\t// in\n    tag_177:\n        /* \"#utility.yul\":1848:2189   */\n      pop\n        /* \"#utility.yul\":1764:2189   */\n      swap4\n      swap3\n      pop\n      pop\n      pop\n      jump\t// out\n        /* \"#utility.yul\":2209:2549   */\n    tag_101:\n        /* \"#utility.yul\":2265:2270   */\n      0x00\n        /* \"#utility.yul\":2314:2317   */\n      dup3\n        /* \"#utility.yul\":2307:2311   */\n      0x1f\n        /* \"#utility.yul\":2299:2305   */\n      dup4\n        /* \"#utility.yul\":2295:2312   */\n      add\n        /* \"#utility.yul\":2291:2318   */\n      slt\n        /* \"#utility.yul\":2281:2403   */\n      tag_179\n      jumpi\n        /* \"#utility.yul\":2322:2401   */\n      tag_180\n      tag_92\n      jump\t// in\n    tag_180:\n        /* \"#utility.yul\":2281:2403   */\n    tag_179:\n        /* \"#utility.yul\":2439:2445   */\n      dup2\n        /* \"#utility.yul\":2426:2446   */\n      calldataload\n        /* \"#utility.yul\":2464:2543   */\n      tag_181\n        /* \"#utility.yul\":2539:2542   */\n      dup5\n        /* \"#utility.yul\":2531:2537   */\n      dup3\n        /* \"#utility.yul\":2524:2528   */\n      0x20\n        /* \"#utility.yul\":2516:2522   */\n      dup7\n        /* \"#utility.yul\":2512:2529   */\n      add\n        /* \"#utility.yul\":2464:2543   */\n      tag_100\n      jump\t// in\n    tag_181:\n        /* \"#utility.yul\":2455:2543   */\n      swap2\n      pop\n        /* \"#utility.yul\":2271:2549   */\n      pop\n        /* \"#utility.yul\":2209:2549   */\n      swap3\n      swap2\n      pop\n      pop\n      jump\t// out\n        /* \"#utility.yul\":2555:2681   */\n    tag_102:\n        /* \"#utility.yul\":2592:2599   */\n      0x00\n        /* \"#utility.yul\":2632:2674   */\n      0xffffffffffffffffffffffffffffffffffffffff\n        /* \"#utility.yul\":2625:2630   */\n      dup3\n        /* \"#utility.yul\":2621:2675   */\n      and\n        /* \"#utility.yul\":2610:2675   */\n      swap1\n      pop\n        /* \"#utility.yul\":2555:2681   */\n      swap2\n      swap1\n      pop\n      jump\t// out\n        /* \"#utility.yul\":2687:2783   */\n    tag_103:\n        /* \"#utility.yul\":2724:2731   */\n      0x00\n        /* \"#utility.yul\":2753:2777   */\n      tag_184\n        /* \"#utility.yul\":2771:2776   */\n      dup3\n        /* \"#utility.yul\":2753:2777   */\n      tag_102\n      jump\t// in\n    tag_184:\n        /* \"#utility.yul\":2742:2777   */\n      swap1\n      pop\n        /* \"#utility.yul\":2687:2783   */\n      swap2\n      swap1\n      pop\n      jump\t// out\n        /* \"#utility.yul\":2789:2911   */\n    tag_104:\n        /* \"#utility.yul\":2862:2886   */\n      tag_186\n        /* \"#utility.yul\":2880:2885   */\n      dup2\n        /* \"#utility.yul\":2862:2886   */\n      tag_103\n      jump\t// in\n    tag_186:\n        /* \"#utility.yul\":2855:2860   */\n      dup2\n        /* \"#utility.yul\":2852:2887   */\n      eq\n        /* \"#utility.yul\":2842:2905   */\n      tag_187\n      jumpi\n        /* \"#utility.yul\":2901:2902   */\n      0x00\n        /* \"#utility.yul\":2898:2899   */\n      0x00\n        /* \"#utility.yul\":2891:2903   */\n      revert\n        /* \"#utility.yul\":2842:2905   */\n    tag_187:\n        /* \"#utility.yul\":2789:2911   */\n      pop\n      jump\t// out\n        /* \"#utility.yul\":2917:3056   */\n    tag_105:\n        /* \"#utility.yul\":2963:2968   */\n      0x00\n        /* \"#utility.yul\":3001:3007   */\n      dup2\n        /* \"#utility.yul\":2988:3008   */\n      calldataload\n        /* \"#utility.yul\":2979:3008   */\n      swap1\n      pop\n        /* \"#utility.yul\":3017:3050   */\n      tag_189\n        /* \"#utility.yul\":3044:3049   */\n      dup2\n        /* \"#utility.yul\":3017:3050   */\n      tag_104\n      jump\t// in\n    tag_189:\n        /* \"#utility.yul\":2917:3056   */\n      swap3\n      swap2\n      pop\n      pop\n      jump\t// out\n        /* \"#utility.yul\":3062:3716   */\n    tag_10:\n        /* \"#utility.yul\":3140:3146   */\n      0x00\n        /* \"#utility.yul\":3148:3154   */\n      0x00\n        /* \"#utility.yul\":3197:3199   */\n      0x40\n        /* \"#utility.yul\":3185:3194   */\n      dup4\n        /* \"#utility.yul\":3176:3183   */\n      dup6\n        /* \"#utility.yul\":3172:3195   */\n      sub\n        /* \"#utility.yul\":3168:3200   */\n      slt\n        /* \"#utility.yul\":3165:3284   */\n      iszero\n      tag_191\n      jumpi\n        /* \"#utility.yul\":3203:3282   */\n      tag_192\n      tag_90\n      jump\t// in\n    tag_192:\n        /* \"#utility.yul\":3165:3284   */\n    tag_191:\n        /* \"#utility.yul\":3351:3352   */\n      0x00\n        /* \"#utility.yul\":3340:3349   */\n      dup4\n        /* \"#utility.yul\":3336:3353   */\n      add\n        /* \"#utility.yul\":3323:3354   */\n      calldataload\n        /* \"#utility.yul\":3381:3399   */\n      0xffffffffffffffff\n        /* \"#utility.yul\":3373:3379   */\n      dup2\n        /* \"#utility.yul\":3370:3400   */\n      gt\n        /* \"#utility.yul\":3367:3484   */\n      iszero\n      tag_193\n      jumpi\n        /* \"#utility.yul\":3403:3482   */\n      tag_194\n      tag_91\n      jump\t// in\n    tag_194:\n        /* \"#utility.yul\":3367:3484   */\n    tag_193:\n        /* \"#utility.yul\":3508:3571   */\n      tag_195\n        /* \"#utility.yul\":3563:3570   */\n      dup6\n        /* \"#utility.yul\":3554:3560   */\n      dup3\n        /* \"#utility.yul\":3543:3552   */\n      dup7\n        /* \"#utility.yul\":3539:3561   */\n      add\n        /* \"#utility.yul\":3508:3571   */\n      tag_101\n      jump\t// in\n    tag_195:\n        /* \"#utility.yul\":3498:3571   */\n      swap3\n      pop\n        /* \"#utility.yul\":3294:3581   */\n      pop\n        /* \"#utility.yul\":3620:3622   */\n      0x20\n        /* \"#utility.yul\":3646:3699   */\n      tag_196\n        /* \"#utility.yul\":3691:3698   */\n      dup6\n        /* \"#utility.yul\":3682:3688   */\n      dup3\n        /* \"#utility.yul\":3671:3680   */\n      dup7\n        /* \"#utility.yul\":3667:3689   */\n      add\n        /* \"#utility.yul\":3646:3699   */\n      tag_105\n      jump\t// in\n    tag_196:\n        /* \"#utility.yul\":3636:3699   */\n      swap2\n      pop\n        /* \"#utility.yul\":3591:3709   */\n      pop\n        /* \"#utility.yul\":3062:3716   */\n      swap3\n      pop\n      swap3\n      swap1\n      pop\n      jump\t// out\n        /* \"#utility.yul\":3722:3812   */\n    tag_106:\n        /* \"#utility.yul\":3756:3763   */\n      0x00\n        /* \"#utility.yul\":3799:3804   */\n      dup2\n        /* \"#utility.yul\":3792:3805   */\n      iszero\n        /* \"#utility.yul\":3785:3806   */\n      iszero\n        /* \"#utility.yul\":3774:3806   */\n      swap1\n      pop\n        /* \"#utility.yul\":3722:3812   */\n      swap2\n      swap1\n      pop\n      jump\t// out\n        /* \"#utility.yul\":3818:3927   */\n    tag_107:\n        /* \"#utility.yul\":3899:3920   */\n      tag_199\n        /* \"#utility.yul\":3914:3919   */\n      dup2\n        /* \"#utility.yul\":3899:3920   */\n      tag_106\n      jump\t// in\n    tag_199:\n        /* \"#utility.yul\":3894:3897   */\n      dup3\n        /* \"#utility.yul\":3887:3921   */\n      mstore\n        /* \"#utility.yul\":3818:3927   */\n      pop\n      pop\n      jump\t// out\n        /* \"#utility.yul\":3933:4143   */\n    tag_13:\n        /* \"#utility.yul\":4020:4024   */\n      0x00\n        /* \"#utility.yul\":4058:4060   */\n      0x20\n        /* \"#utility.yul\":4047:4056   */\n      dup3\n        /* \"#utility.yul\":4043:4061   */\n      add\n        /* \"#utility.yul\":4035:4061   */\n      swap1\n      pop\n        /* \"#utility.yul\":4071:4136   */\n      tag_201\n        /* \"#utility.yul\":4133:4134   */\n      0x00\n        /* \"#utility.yul\":4122:4131   */\n      dup4\n        /* \"#utility.yul\":4118:4135   */\n      add\n        /* \"#utility.yul\":4109:4115   */\n      dup5\n        /* \"#utility.yul\":4071:4136   */\n      tag_107\n      jump\t// in\n    tag_201:\n        /* \"#utility.yul\":3933:4143   */\n      swap3\n      swap2\n      pop\n      pop\n      jump\t// out\n        /* \"#utility.yul\":4149:4266   */\n    tag_108:\n        /* \"#utility.yul\":4258:4259   */\n      0x00\n        /* \"#utility.yul\":4255:4256   */\n      0x00\n        /* \"#utility.yul\":4248:4260   */\n      revert\n        /* \"#utility.yul\":4272:4389   */\n    tag_109:\n        /* \"#utility.yul\":4381:4382   */\n      0x00\n        /* \"#utility.yul\":4378:4379   */\n      0x00\n        /* \"#utility.yul\":4371:4383   */\n      revert\n        /* \"#utility.yul\":4409:4962   */\n    tag_110:\n        /* \"#utility.yul\":4467:4475   */\n      0x00\n        /* \"#utility.yul\":4477:4483   */\n      0x00\n        /* \"#utility.yul\":4527:4530   */\n      dup4\n        /* \"#utility.yul\":4520:4524   */\n      0x1f\n        /* \"#utility.yul\":4512:4518   */\n      dup5\n        /* \"#utility.yul\":4508:4525   */\n      add\n        /* \"#utility.yul\":4504:4531   */\n      slt\n        /* \"#utility.yul\":4494:4616   */\n      tag_205\n      jumpi\n        /* \"#utility.yul\":4535:4614   */\n      tag_206\n      tag_92\n      jump\t// in\n    tag_206:\n        /* \"#utility.yul\":4494:4616   */\n    tag_205:\n        /* \"#utility.yul\":4648:4654   */\n      dup3\n        /* \"#utility.yul\":4635:4655   */\n      calldataload\n        /* \"#utility.yul\":4625:4655   */\n      swap1\n      pop\n        /* \"#utility.yul\":4678:4696   */\n      0xffffffffffffffff\n        /* \"#utility.yul\":4670:4676   */\n      dup2\n        /* \"#utility.yul\":4667:4697   */\n      gt\n        /* \"#utility.yul\":4664:4781   */\n      iszero\n      tag_207\n      jumpi\n        /* \"#utility.yul\":4700:4779   */\n      tag_208\n      tag_108\n      jump\t// in\n    tag_208:\n        /* \"#utility.yul\":4664:4781   */\n    tag_207:\n        /* \"#utility.yul\":4814:4818   */\n      0x20\n        /* \"#utility.yul\":4806:4812   */\n      dup4\n        /* \"#utility.yul\":4802:4819   */\n      add\n        /* \"#utility.yul\":4790:4819   */\n      swap2\n      pop\n        /* \"#utility.yul\":4868:4871   */\n      dup4\n        /* \"#utility.yul\":4860:4864   */\n      0x01\n        /* \"#utility.yul\":4852:4858   */\n      dup3\n        /* \"#utility.yul\":4848:4865   */\n      mul\n        /* \"#utility.yul\":4838:4846   */\n      dup4\n        /* \"#utility.yul\":4834:4866   */\n      add\n        /* \"#utility.yul\":4831:4872   */\n      gt\n        /* \"#utility.yul\":4828:4956   */\n      iszero\n      tag_209\n      jumpi\n        /* \"#utility.yul\":4875:4954   */\n      tag_210\n      tag_109\n      jump\t// in\n    tag_210:\n        /* \"#utility.yul\":4828:4956   */\n    tag_209:\n        /* \"#utility.yul\":4409:4962   */\n      swap3\n      pop\n      swap3\n      swap1\n      pop\n      jump\t// out\n        /* \"#utility.yul\":4968:5497   */\n    tag_16:\n        /* \"#utility.yul\":5039:5045   */\n      0x00\n        /* \"#utility.yul\":5047:5053   */\n      0x00\n        /* \"#utility.yul\":5096:5098   */\n      0x20\n        /* \"#utility.yul\":5084:5093   */\n      dup4\n        /* \"#utility.yul\":5075:5082   */\n      dup6\n        /* \"#utility.yul\":5071:5094   */\n      sub\n        /* \"#utility.yul\":5067:5099   */\n      slt\n        /* \"#utility.yul\":5064:5183   */\n      iszero\n      tag_212\n      jumpi\n        /* \"#utility.yul\":5102:5181   */\n      tag_213\n      tag_90\n      jump\t// in\n    tag_213:\n        /* \"#utility.yul\":5064:5183   */\n    tag_212:\n        /* \"#utility.yul\":5250:5251   */\n      0x00\n        /* \"#utility.yul\":5239:5248   */\n      dup4\n        /* \"#utility.yul\":5235:5252   */\n      add\n        /* \"#utility.yul\":5222:5253   */\n      calldataload\n        /* \"#utility.yul\":5280:5298   */\n      0xffffffffffffffff\n        /* \"#utility.yul\":5272:5278   */\n      dup2\n        /* \"#utility.yul\":5269:5299   */\n      gt\n        /* \"#utility.yul\":5266:5383   */\n      iszero\n      tag_214\n      jumpi\n        /* \"#utility.yul\":5302:5381   */\n      tag_215\n      tag_91\n      jump\t// in\n    tag_215:\n        /* \"#utility.yul\":5266:5383   */\n    tag_214:\n        /* \"#utility.yul\":5415:5480   */\n      tag_216\n        /* \"#utility.yul\":5472:5479   */\n      dup6\n        /* \"#utility.yul\":5463:5469   */\n      dup3\n        /* \"#utility.yul\":5452:5461   */\n      dup7\n        /* \"#utility.yul\":5448:5470   */\n      add\n        /* \"#utility.yul\":5415:5480   */\n      tag_110\n      jump\t// in\n    tag_216:\n        /* \"#utility.yul\":5397:5480   */\n      swap3\n      pop\n      swap3\n      pop\n        /* \"#utility.yul\":5193:5490   */\n      pop\n        /* \"#utility.yul\":4968:5497   */\n      swap3\n      pop\n      swap3\n      swap1\n      pop\n      jump\t// out\n        /* \"#utility.yul\":5503:5602   */\n    tag_111:\n        /* \"#utility.yul\":5555:5561   */\n      0x00\n        /* \"#utility.yul\":5589:5594   */\n      dup2\n        /* \"#utility.yul\":5583:5595   */\n      mload\n        /* \"#utility.yul\":5573:5595   */\n      swap1\n      pop\n        /* \"#utility.yul\":5503:5602   */\n      swap2\n      swap1\n      pop\n      jump\t// out\n        /* \"#utility.yul\":5608:5767   */\n    tag_112:\n        /* \"#utility.yul\":5682:5693   */\n      0x00\n        /* \"#utility.yul\":5716:5722   */\n      dup3\n        /* \"#utility.yul\":5711:5714   */\n      dup3\n        /* \"#utility.yul\":5704:5723   */\n      mstore\n        /* \"#utility.yul\":5756:5760   */\n      0x20\n        /* \"#utility.yul\":5751:5754   */\n      dup3\n        /* \"#utility.yul\":5747:5761   */\n      add\n        /* \"#utility.yul\":5732:5761   */\n      swap1\n      pop\n        /* \"#utility.yul\":5608:5767   */\n      swap3\n      swap2\n      pop\n      pop\n      jump\t// out\n        /* \"#utility.yul\":5773:5912   */\n    tag_113:\n        /* \"#utility.yul\":5862:5868   */\n      dup3\n        /* \"#utility.yul\":5857:5860   */\n      dup2\n        /* \"#utility.yul\":5852:5855   */\n      dup4\n        /* \"#utility.yul\":5846:5869   */\n      mcopy\n        /* \"#utility.yul\":5903:5904   */\n      0x00\n        /* \"#utility.yul\":5894:5900   */\n      dup4\n        /* \"#utility.yul\":5889:5892   */\n      dup4\n        /* \"#utility.yul\":5885:5901   */\n      add\n        /* \"#utility.yul\":5878:5905   */\n      mstore\n        /* \"#utility.yul\":5773:5912   */\n      pop\n      pop\n      pop\n      jump\t// out\n        /* \"#utility.yul\":5918:6275   */\n    tag_114:\n        /* \"#utility.yul\":5996:5999   */\n      0x00\n        /* \"#utility.yul\":6024:6063   */\n      tag_221\n        /* \"#utility.yul\":6057:6062   */\n      dup3\n        /* \"#utility.yul\":6024:6063   */\n      tag_111\n      jump\t// in\n    tag_221:\n        /* \"#utility.yul\":6079:6140   */\n      tag_222\n        /* \"#utility.yul\":6133:6139   */\n      dup2\n        /* \"#utility.yul\":6128:6131   */\n      dup6\n        /* \"#utility.yul\":6079:6140   */\n      tag_112\n      jump\t// in\n    tag_222:\n        /* \"#utility.yul\":6072:6140   */\n      swap4\n      pop\n        /* \"#utility.yul\":6149:6214   */\n      tag_223\n        /* \"#utility.yul\":6207:6213   */\n      dup2\n        /* \"#utility.yul\":6202:6205   */\n      dup6\n        /* \"#utility.yul\":6195:6199   */\n      0x20\n        /* \"#utility.yul\":6188:6193   */\n      dup7\n        /* \"#utility.yul\":6184:6200   */\n      add\n        /* \"#utility.yul\":6149:6214   */\n      tag_113\n      jump\t// in\n    tag_223:\n        /* \"#utility.yul\":6239:6268   */\n      tag_224\n        /* \"#utility.yul\":6261:6267   */\n      dup2\n        /* \"#utility.yul\":6239:6268   */\n      tag_94\n      jump\t// in\n    tag_224:\n        /* \"#utility.yul\":6234:6237   */\n      dup5\n        /* \"#utility.yul\":6230:6269   */\n      add\n        /* \"#utility.yul\":6223:6269   */\n      swap2\n      pop\n        /* \"#utility.yul\":6000:6275   */\n      pop\n        /* \"#utility.yul\":5918:6275   */\n      swap3\n      swap2\n      pop\n      pop\n      jump\t// out\n        /* \"#utility.yul\":6281:6389   */\n    tag_115:\n        /* \"#utility.yul\":6358:6382   */\n      tag_226\n        /* \"#utility.yul\":6376:6381   */\n      dup2\n        /* \"#utility.yul\":6358:6382   */\n      tag_103\n      jump\t// in\n    tag_226:\n        /* \"#utility.yul\":6353:6356   */\n      dup3\n        /* \"#utility.yul\":6346:6383   */\n      mstore\n        /* \"#utility.yul\":6281:6389   */\n      pop\n      pop\n      jump\t// out\n        /* \"#utility.yul\":6395:6472   */\n    tag_116:\n        /* \"#utility.yul\":6432:6439   */\n      0x00\n        /* \"#utility.yul\":6461:6466   */\n      dup2\n        /* \"#utility.yul\":6450:6466   */\n      swap1\n      pop\n        /* \"#utility.yul\":6395:6472   */\n      swap2\n      swap1\n      pop\n      jump\t// out\n        /* \"#utility.yul\":6478:6586   */\n    tag_117:\n        /* \"#utility.yul\":6555:6579   */\n      tag_229\n        /* \"#utility.yul\":6573:6578   */\n      dup2\n        /* \"#utility.yul\":6555:6579   */\n      tag_116\n      jump\t// in\n    tag_229:\n        /* \"#utility.yul\":6550:6553   */\n      dup3\n        /* \"#utility.yul\":6543:6580   */\n      mstore\n        /* \"#utility.yul\":6478:6586   */\n      pop\n      pop\n      jump\t// out\n        /* \"#utility.yul\":6648:7415   */\n    tag_118:\n        /* \"#utility.yul\":6755:6758   */\n      0x00\n        /* \"#utility.yul\":6791:6795   */\n      0x60\n        /* \"#utility.yul\":6786:6789   */\n      dup4\n        /* \"#utility.yul\":6782:6796   */\n      add\n        /* \"#utility.yul\":6877:6881   */\n      0x00\n        /* \"#utility.yul\":6870:6875   */\n      dup4\n        /* \"#utility.yul\":6866:6882   */\n      add\n        /* \"#utility.yul\":6860:6883   */\n      mload\n        /* \"#utility.yul\":6930:6933   */\n      dup5\n        /* \"#utility.yul\":6924:6928   */\n      dup3\n        /* \"#utility.yul\":6920:6934   */\n      sub\n        /* \"#utility.yul\":6913:6917   */\n      0x00\n        /* \"#utility.yul\":6908:6911   */\n      dup7\n        /* \"#utility.yul\":6904:6918   */\n      add\n        /* \"#utility.yul\":6897:6935   */\n      mstore\n        /* \"#utility.yul\":6956:7029   */\n      tag_231\n        /* \"#utility.yul\":7024:7028   */\n      dup3\n        /* \"#utility.yul\":7010:7022   */\n      dup3\n        /* \"#utility.yul\":6956:7029   */\n      tag_114\n      jump\t// in\n    tag_231:\n        /* \"#utility.yul\":6948:7029   */\n      swap2\n      pop\n        /* \"#utility.yul\":6806:7040   */\n      pop\n        /* \"#utility.yul\":7123:7127   */\n      0x20\n        /* \"#utility.yul\":7116:7121   */\n      dup4\n        /* \"#utility.yul\":7112:7128   */\n      add\n        /* \"#utility.yul\":7106:7129   */\n      mload\n        /* \"#utility.yul\":7142:7205   */\n      tag_232\n        /* \"#utility.yul\":7199:7203   */\n      0x20\n        /* \"#utility.yul\":7194:7197   */\n      dup7\n        /* \"#utility.yul\":7190:7204   */\n      add\n        /* \"#utility.yul\":7176:7188   */\n      dup3\n        /* \"#utility.yul\":7142:7205   */\n      tag_115\n      jump\t// in\n    tag_232:\n        /* \"#utility.yul\":7050:7215   */\n      pop\n        /* \"#utility.yul\":7296:7300   */\n      0x40\n        /* \"#utility.yul\":7289:7294   */\n      dup4\n        /* \"#utility.yul\":7285:7301   */\n      add\n        /* \"#utility.yul\":7279:7302   */\n      mload\n        /* \"#utility.yul\":7315:7378   */\n      tag_233\n        /* \"#utility.yul\":7372:7376   */\n      0x40\n        /* \"#utility.yul\":7367:7370   */\n      dup7\n        /* \"#utility.yul\":7363:7377   */\n      add\n        /* \"#utility.yul\":7349:7361   */\n      dup3\n        /* \"#utility.yul\":7315:7378   */\n      tag_117\n      jump\t// in\n    tag_233:\n        /* \"#utility.yul\":7225:7388   */\n      pop\n        /* \"#utility.yul\":7405:7409   */\n      dup1\n        /* \"#utility.yul\":7398:7409   */\n      swap2\n      pop\n        /* \"#utility.yul\":6760:7415   */\n      pop\n        /* \"#utility.yul\":6648:7415   */\n      swap3\n      swap2\n      pop\n      pop\n      jump\t// out\n        /* \"#utility.yul\":7421:7770   */\n    tag_23:\n        /* \"#utility.yul\":7552:7556   */\n      0x00\n        /* \"#utility.yul\":7590:7592   */\n      0x20\n        /* \"#utility.yul\":7579:7588   */\n      dup3\n        /* \"#utility.yul\":7575:7593   */\n      add\n        /* \"#utility.yul\":7567:7593   */\n      swap1\n      pop\n        /* \"#utility.yul\":7639:7648   */\n      dup2\n        /* \"#utility.yul\":7633:7637   */\n      dup2\n        /* \"#utility.yul\":7629:7649   */\n      sub\n        /* \"#utility.yul\":7625:7626   */\n      0x00\n        /* \"#utility.yul\":7614:7623   */\n      dup4\n        /* \"#utility.yul\":7610:7627   */\n      add\n        /* \"#utility.yul\":7603:7650   */\n      mstore\n        /* \"#utility.yul\":7667:7763   */\n      tag_235\n        /* \"#utility.yul\":7758:7762   */\n      dup2\n        /* \"#utility.yul\":7749:7755   */\n      dup5\n        /* \"#utility.yul\":7667:7763   */\n      tag_118\n      jump\t// in\n    tag_235:\n        /* \"#utility.yul\":7659:7763   */\n      swap1\n      pop\n        /* \"#utility.yul\":7421:7770   */\n      swap3\n      swap2\n      pop\n      pop\n      jump\t// out\n        /* \"#utility.yul\":7776:7894   */\n    tag_119:\n        /* \"#utility.yul\":7863:7887   */\n      tag_237\n        /* \"#utility.yul\":7881:7886   */\n      dup2\n        /* \"#utility.yul\":7863:7887   */\n      tag_116\n      jump\t// in\n    tag_237:\n        /* \"#utility.yul\":7858:7861   */\n      dup3\n        /* \"#utility.yul\":7851:7888   */\n      mstore\n        /* \"#utility.yul\":7776:7894   */\n      pop\n      pop\n      jump\t// out\n        /* \"#utility.yul\":7900:8122   */\n    tag_28:\n        /* \"#utility.yul\":7993:7997   */\n      0x00\n        /* \"#utility.yul\":8031:8033   */\n      0x20\n        /* \"#utility.yul\":8020:8029   */\n      dup3\n        /* \"#utility.yul\":8016:8034   */\n      add\n        /* \"#utility.yul\":8008:8034   */\n      swap1\n      pop\n        /* \"#utility.yul\":8044:8115   */\n      tag_239\n        /* \"#utility.yul\":8112:8113   */\n      0x00\n        /* \"#utility.yul\":8101:8110   */\n      dup4\n        /* \"#utility.yul\":8097:8114   */\n      add\n        /* \"#utility.yul\":8088:8094   */\n      dup5\n        /* \"#utility.yul\":8044:8115   */\n      tag_119\n      jump\t// in\n    tag_239:\n        /* \"#utility.yul\":7900:8122   */\n      swap3\n      swap2\n      pop\n      pop\n      jump\t// out\n        /* \"#utility.yul\":8128:8250   */\n    tag_120:\n        /* \"#utility.yul\":8201:8225   */\n      tag_241\n        /* \"#utility.yul\":8219:8224   */\n      dup2\n        /* \"#utility.yul\":8201:8225   */\n      tag_116\n      jump\t// in\n    tag_241:\n        /* \"#utility.yul\":8194:8199   */\n      dup2\n        /* \"#utility.yul\":8191:8226   */\n      eq\n        /* \"#utility.yul\":8181:8244   */\n      tag_242\n      jumpi\n        /* \"#utility.yul\":8240:8241   */\n      0x00\n        /* \"#utility.yul\":8237:8238   */\n      0x00\n        /* \"#utility.yul\":8230:8242   */\n      revert\n        /* \"#utility.yul\":8181:8244   */\n    tag_242:\n        /* \"#utility.yul\":8128:8250   */\n      pop\n      jump\t// out\n        /* \"#utility.yul\":8256:8395   */\n    tag_121:\n        /* \"#utility.yul\":8302:8307   */\n      0x00\n        /* \"#utility.yul\":8340:8346   */\n      dup2\n        /* \"#utility.yul\":8327:8347   */\n      calldataload\n        /* \"#utility.yul\":8318:8347   */\n      swap1\n      pop\n        /* \"#utility.yul\":8356:8389   */\n      tag_244\n        /* \"#utility.yul\":8383:8388   */\n      dup2\n        /* \"#utility.yul\":8356:8389   */\n      tag_120\n      jump\t// in\n    tag_244:\n        /* \"#utility.yul\":8256:8395   */\n      swap3\n      swap2\n      pop\n      pop\n      jump\t// out\n        /* \"#utility.yul\":8401:9420   */\n    tag_32:\n        /* \"#utility.yul\":8502:8508   */\n      0x00\n        /* \"#utility.yul\":8510:8516   */\n      0x00\n        /* \"#utility.yul\":8518:8524   */\n      0x00\n        /* \"#utility.yul\":8526:8532   */\n      0x00\n        /* \"#utility.yul\":8534:8540   */\n      0x00\n        /* \"#utility.yul\":8583:8585   */\n      0x60\n        /* \"#utility.yul\":8571:8580   */\n      dup7\n        /* \"#utility.yul\":8562:8569   */\n      dup9\n        /* \"#utility.yul\":8558:8581   */\n      sub\n        /* \"#utility.yul\":8554:8586   */\n      slt\n        /* \"#utility.yul\":8551:8670   */\n      iszero\n      tag_246\n      jumpi\n        /* \"#utility.yul\":8589:8668   */\n      tag_247\n      tag_90\n      jump\t// in\n    tag_247:\n        /* \"#utility.yul\":8551:8670   */\n    tag_246:\n        /* \"#utility.yul\":8737:8738   */\n      0x00\n        /* \"#utility.yul\":8726:8735   */\n      dup7\n        /* \"#utility.yul\":8722:8739   */\n      add\n        /* \"#utility.yul\":8709:8740   */\n      calldataload\n        /* \"#utility.yul\":8767:8785   */\n      0xffffffffffffffff\n        /* \"#utility.yul\":8759:8765   */\n      dup2\n        /* \"#utility.yul\":8756:8786   */\n      gt\n        /* \"#utility.yul\":8753:8870   */\n      iszero\n      tag_248\n      jumpi\n        /* \"#utility.yul\":8789:8868   */\n      tag_249\n      tag_91\n      jump\t// in\n    tag_249:\n        /* \"#utility.yul\":8753:8870   */\n    tag_248:\n        /* \"#utility.yul\":8902:8967   */\n      tag_250\n        /* \"#utility.yul\":8959:8966   */\n      dup9\n        /* \"#utility.yul\":8950:8956   */\n      dup3\n        /* \"#utility.yul\":8939:8948   */\n      dup10\n        /* \"#utility.yul\":8935:8957   */\n      add\n        /* \"#utility.yul\":8902:8967   */\n      tag_110\n      jump\t// in\n    tag_250:\n        /* \"#utility.yul\":8884:8967   */\n      swap6\n      pop\n      swap6\n      pop\n        /* \"#utility.yul\":8680:8977   */\n      pop\n        /* \"#utility.yul\":9044:9046   */\n      0x20\n        /* \"#utility.yul\":9033:9042   */\n      dup7\n        /* \"#utility.yul\":9029:9047   */\n      add\n        /* \"#utility.yul\":9016:9048   */\n      calldataload\n        /* \"#utility.yul\":9075:9093   */\n      0xffffffffffffffff\n        /* \"#utility.yul\":9067:9073   */\n      dup2\n        /* \"#utility.yul\":9064:9094   */\n      gt\n        /* \"#utility.yul\":9061:9178   */\n      iszero\n      tag_251\n      jumpi\n        /* \"#utility.yul\":9097:9176   */\n      tag_252\n      tag_91\n      jump\t// in\n    tag_252:\n        /* \"#utility.yul\":9061:9178   */\n    tag_251:\n        /* \"#utility.yul\":9210:9275   */\n      tag_253\n        /* \"#utility.yul\":9267:9274   */\n      dup9\n        /* \"#utility.yul\":9258:9264   */\n      dup3\n        /* \"#utility.yul\":9247:9256   */\n      dup10\n        /* \"#utility.yul\":9243:9265   */\n      add\n        /* \"#utility.yul\":9210:9275   */\n      tag_110\n      jump\t// in\n    tag_253:\n        /* \"#utility.yul\":9192:9275   */\n      swap4\n      pop\n      swap4\n      pop\n        /* \"#utility.yul\":8987:9285   */\n      pop\n        /* \"#utility.yul\":9324:9326   */\n      0x40\n        /* \"#utility.yul\":9350:9403   */\n      tag_254\n        /* \"#utility.yul\":9395:9402   */\n      dup9\n        /* \"#utility.yul\":9386:9392   */\n      dup3\n        /* \"#utility.yul\":9375:9384   */\n      dup10\n        /* \"#utility.yul\":9371:9393   */\n      add\n        /* \"#utility.yul\":9350:9403   */\n      tag_121\n      jump\t// in\n    tag_254:\n        /* \"#utility.yul\":9340:9403   */\n      swap2\n      pop\n        /* \"#utility.yul\":9295:9413   */\n      pop\n        /* \"#utility.yul\":8401:9420   */\n      swap3\n      swap6\n      pop\n      swap3\n      swap6\n      swap1\n      swap4\n      pop\n      jump\t// out\n        /* \"#utility.yul\":9426:9574   */\n    tag_122:\n        /* \"#utility.yul\":9528:9539   */\n      0x00\n        /* \"#utility.yul\":9565:9568   */\n      dup2\n        /* \"#utility.yul\":9550:9568   */\n      swap1\n      pop\n        /* \"#utility.yul\":9426:9574   */\n      swap3\n      swap2\n      pop\n      pop\n      jump\t// out\n        /* \"#utility.yul\":9604:9934   */\n    tag_123:\n        /* \"#utility.yul\":9720:9723   */\n      0x00\n        /* \"#utility.yul\":9741:9830   */\n      tag_257\n        /* \"#utility.yul\":9823:9829   */\n      dup4\n        /* \"#utility.yul\":9818:9821   */\n      dup6\n        /* \"#utility.yul\":9741:9830   */\n      tag_122\n      jump\t// in\n    tag_257:\n        /* \"#utility.yul\":9734:9830   */\n      swap4\n      pop\n        /* \"#utility.yul\":9840:9896   */\n      tag_258\n        /* \"#utility.yul\":9889:9895   */\n      dup4\n        /* \"#utility.yul\":9884:9887   */\n      dup6\n        /* \"#utility.yul\":9877:9882   */\n      dup5\n        /* \"#utility.yul\":9840:9896   */\n      tag_99\n      jump\t// in\n    tag_258:\n        /* \"#utility.yul\":9921:9927   */\n      dup3\n        /* \"#utility.yul\":9916:9919   */\n      dup5\n        /* \"#utility.yul\":9912:9928   */\n      add\n        /* \"#utility.yul\":9905:9928   */\n      swap1\n      pop\n        /* \"#utility.yul\":9604:9934   */\n      swap4\n      swap3\n      pop\n      pop\n      pop\n      jump\t// out\n        /* \"#utility.yul\":9940:10235   */\n    tag_36:\n        /* \"#utility.yul\":10082:10085   */\n      0x00\n        /* \"#utility.yul\":10104:10209   */\n      tag_260\n        /* \"#utility.yul\":10205:10208   */\n      dup3\n        /* \"#utility.yul\":10196:10202   */\n      dup5\n        /* \"#utility.yul\":10188:10194   */\n      dup7\n        /* \"#utility.yul\":10104:10209   */\n      tag_123\n      jump\t// in\n    tag_260:\n        /* \"#utility.yul\":10097:10209   */\n      swap2\n      pop\n        /* \"#utility.yul\":10226:10229   */\n      dup2\n        /* \"#utility.yul\":10219:10229   */\n      swap1\n      pop\n        /* \"#utility.yul\":9940:10235   */\n      swap4\n      swap3\n      pop\n      pop\n      pop\n      jump\t// out\n        /* \"#utility.yul\":10241:10421   */\n    tag_124:\n        /* \"#utility.yul\":10289:10366   */\n      0x4e487b7100000000000000000000000000000000000000000000000000000000\n        /* \"#utility.yul\":10286:10287   */\n      0x00\n        /* \"#utility.yul\":10279:10367   */\n      mstore\n        /* \"#utility.yul\":10386:10390   */\n      0x22\n        /* \"#utility.yul\":10383:10384   */\n      0x04\n        /* \"#utility.yul\":10376:10391   */\n      mstore\n        /* \"#utility.yul\":10410:10414   */\n      0x24\n        /* \"#utility.yul\":10407:10408   */\n      0x00\n        /* \"#utility.yul\":10400:10415   */\n      revert\n        /* \"#utility.yul\":10427:10747   */\n    tag_38:\n        /* \"#utility.yul\":10471:10477   */\n      0x00\n        /* \"#utility.yul\":10508:10509   */\n      0x02\n        /* \"#utility.yul\":10502:10506   */\n      dup3\n        /* \"#utility.yul\":10498:10510   */\n      div\n        /* \"#utility.yul\":10488:10510   */\n      swap1\n      pop\n        /* \"#utility.yul\":10555:10556   */\n      0x01\n        /* \"#utility.yul\":10549:10553   */\n      dup3\n        /* \"#utility.yul\":10545:10557   */\n      and\n        /* \"#utility.yul\":10576:10594   */\n      dup1\n        /* \"#utility.yul\":10566:10647   */\n      tag_263\n      jumpi\n        /* \"#utility.yul\":10632:10636   */\n      0x7f\n        /* \"#utility.yul\":10624:10630   */\n      dup3\n        /* \"#utility.yul\":10620:10637   */\n      and\n        /* \"#utility.yul\":10610:10637   */\n      swap2\n      pop\n        /* \"#utility.yul\":10566:10647   */\n    tag_263:\n        /* \"#utility.yul\":10694:10696   */\n      0x20\n        /* \"#utility.yul\":10686:10692   */\n      dup3\n        /* \"#utility.yul\":10683:10697   */\n      lt\n        /* \"#utility.yul\":10663:10681   */\n      dup2\n        /* \"#utility.yul\":10660:10698   */\n      sub\n        /* \"#utility.yul\":10657:10741   */\n      tag_264\n      jumpi\n        /* \"#utility.yul\":10713:10731   */\n      tag_265\n      tag_124\n      jump\t// in\n    tag_265:\n        /* \"#utility.yul\":10657:10741   */\n    tag_264:\n        /* \"#utility.yul\":10478:10747   */\n      pop\n        /* \"#utility.yul\":10427:10747   */\n      swap2\n      swap1\n      pop\n      jump\t// out\n        /* \"#utility.yul\":10753:10922   */\n    tag_125:\n        /* \"#utility.yul\":10837:10848   */\n      0x00\n        /* \"#utility.yul\":10871:10877   */\n      dup3\n        /* \"#utility.yul\":10866:10869   */\n      dup3\n        /* \"#utility.yul\":10859:10878   */\n      mstore\n        /* \"#utility.yul\":10911:10915   */\n      0x20\n        /* \"#utility.yul\":10906:10909   */\n      dup3\n        /* \"#utility.yul\":10902:10916   */\n      add\n        /* \"#utility.yul\":10887:10916   */\n      swap1\n      pop\n        /* \"#utility.yul\":10753:10922   */\n      swap3\n      swap2\n      pop\n      pop\n      jump\t// out\n        /* \"#utility.yul\":10928:11092   */\n    tag_126:\n        /* \"#utility.yul\":11068:11084   */\n      0x4c696e6b206e6f7420666f756e64000000000000000000000000000000000000\n        /* \"#utility.yul\":11064:11065   */\n      0x00\n        /* \"#utility.yul\":11056:11062   */\n      dup3\n        /* \"#utility.yul\":11052:11066   */\n      add\n        /* \"#utility.yul\":11045:11085   */\n      mstore\n        /* \"#utility.yul\":10928:11092   */\n      pop\n      jump\t// out\n        /* \"#utility.yul\":11098:11464   */\n    tag_127:\n        /* \"#utility.yul\":11240:11243   */\n      0x00\n        /* \"#utility.yul\":11261:11328   */\n      tag_269\n        /* \"#utility.yul\":11325:11327   */\n      0x0e\n        /* \"#utility.yul\":11320:11323   */\n      dup4\n        /* \"#utility.yul\":11261:11328   */\n      tag_125\n      jump\t// in\n    tag_269:\n        /* \"#utility.yul\":11254:11328   */\n      swap2\n      pop\n        /* \"#utility.yul\":11337:11430   */\n      tag_270\n        /* \"#utility.yul\":11426:11429   */\n      dup3\n        /* \"#utility.yul\":11337:11430   */\n      tag_126\n      jump\t// in\n    tag_270:\n        /* \"#utility.yul\":11455:11457   */\n      0x20\n        /* \"#utility.yul\":11450:11453   */\n      dup3\n        /* \"#utility.yul\":11446:11458   */\n      add\n        /* \"#utility.yul\":11439:11458   */\n      swap1\n      pop\n        /* \"#utility.yul\":11098:11464   */\n      swap2\n      swap1\n      pop\n      jump\t// out\n        /* \"#utility.yul\":11470:11889   */\n    tag_45:\n        /* \"#utility.yul\":11636:11640   */\n      0x00\n        /* \"#utility.yul\":11674:11676   */\n      0x20\n        /* \"#utility.yul\":11663:11672   */\n      dup3\n        /* \"#utility.yul\":11659:11677   */\n      add\n        /* \"#utility.yul\":11651:11677   */\n      swap1\n      pop\n        /* \"#utility.yul\":11723:11732   */\n      dup2\n        /* \"#utility.yul\":11717:11721   */\n      dup2\n        /* \"#utility.yul\":11713:11733   */\n      sub\n        /* \"#utility.yul\":11709:11710   */\n      0x00\n        /* \"#utility.yul\":11698:11707   */\n      dup4\n        /* \"#utility.yul\":11694:11711   */\n      add\n        /* \"#utility.yul\":11687:11734   */\n      mstore\n        /* \"#utility.yul\":11751:11882   */\n      tag_272\n        /* \"#utility.yul\":11877:11881   */\n      dup2\n        /* \"#utility.yul\":11751:11882   */\n      tag_127\n      jump\t// in\n    tag_272:\n        /* \"#utility.yul\":11743:11882   */\n      swap1\n      pop\n        /* \"#utility.yul\":11470:11889   */\n      swap2\n      swap1\n      pop\n      jump\t// out\n        /* \"#utility.yul\":11895:12068   */\n    tag_128:\n        /* \"#utility.yul\":12035:12060   */\n      0x596f7520616c7265616479206861766520616363657373000000000000000000\n        /* \"#utility.yul\":12031:12032   */\n      0x00\n        /* \"#utility.yul\":12023:12029   */\n      dup3\n        /* \"#utility.yul\":12019:12033   */\n      add\n        /* \"#utility.yul\":12012:12061   */\n      mstore\n        /* \"#utility.yul\":11895:12068   */\n      pop\n      jump\t// out\n        /* \"#utility.yul\":12074:12440   */\n    tag_129:\n        /* \"#utility.yul\":12216:12219   */\n      0x00\n        /* \"#utility.yul\":12237:12304   */\n      tag_275\n        /* \"#utility.yul\":12301:12303   */\n      0x17\n        /* \"#utility.yul\":12296:12299   */\n      dup4\n        /* \"#utility.yul\":12237:12304   */\n      tag_125\n      jump\t// in\n    tag_275:\n        /* \"#utility.yul\":12230:12304   */\n      swap2\n      pop\n        /* \"#utility.yul\":12313:12406   */\n      tag_276\n        /* \"#utility.yul\":12402:12405   */\n      dup3\n        /* \"#utility.yul\":12313:12406   */\n      tag_128\n      jump\t// in\n    tag_276:\n        /* \"#utility.yul\":12431:12433   */\n      0x20\n        /* \"#utility.yul\":12426:12429   */\n      dup3\n        /* \"#utility.yul\":12422:12434   */\n      add\n        /* \"#utility.yul\":12415:12434   */\n      swap1\n      pop\n        /* \"#utility.yul\":12074:12440   */\n      swap2\n      swap1\n      pop\n      jump\t// out\n        /* \"#utility.yul\":12446:12865   */\n    tag_49:\n        /* \"#utility.yul\":12612:12616   */\n      0x00\n        /* \"#utility.yul\":12650:12652   */\n      0x20\n        /* \"#utility.yul\":12639:12648   */\n      dup3\n        /* \"#utility.yul\":12635:12653   */\n      add\n        /* \"#utility.yul\":12627:12653   */\n      swap1\n      pop\n        /* \"#utility.yul\":12699:12708   */\n      dup2\n        /* \"#utility.yul\":12693:12697   */\n      dup2\n        /* \"#utility.yul\":12689:12709   */\n      sub\n        /* \"#utility.yul\":12685:12686   */\n      0x00\n        /* \"#utility.yul\":12674:12683   */\n      dup4\n        /* \"#utility.yul\":12670:12687   */\n      add\n        /* \"#utility.yul\":12663:12710   */\n      mstore\n        /* \"#utility.yul\":12727:12858   */\n      tag_278\n        /* \"#utility.yul\":12853:12857   */\n      dup2\n        /* \"#utility.yul\":12727:12858   */\n      tag_129\n      jump\t// in\n    tag_278:\n        /* \"#utility.yul\":12719:12858   */\n      swap1\n      pop\n        /* \"#utility.yul\":12446:12865   */\n      swap2\n      swap1\n      pop\n      jump\t// out\n        /* \"#utility.yul\":12871:13041   */\n    tag_130:\n        /* \"#utility.yul\":13011:13033   */\n      0x496e73756666696369656e74207061796d656e74000000000000000000000000\n        /* \"#utility.yul\":13007:13008   */\n      0x00\n        /* \"#utility.yul\":12999:13005   */\n      dup3\n        /* \"#utility.yul\":12995:13009   */\n      add\n        /* \"#utility.yul\":12988:13034   */\n      mstore\n        /* \"#utility.yul\":12871:13041   */\n      pop\n      jump\t// out\n        /* \"#utility.yul\":13047:13413   */\n    tag_131:\n        /* \"#utility.yul\":13189:13192   */\n      0x00\n        /* \"#utility.yul\":13210:13277   */\n      tag_281\n        /* \"#utility.yul\":13274:13276   */\n      0x14\n        /* \"#utility.yul\":13269:13272   */\n      dup4\n        /* \"#utility.yul\":13210:13277   */\n      tag_125\n      jump\t// in\n    tag_281:\n        /* \"#utility.yul\":13203:13277   */\n      swap2\n      pop\n        /* \"#utility.yul\":13286:13379   */\n      tag_282\n        /* \"#utility.yul\":13375:13378   */\n      dup3\n        /* \"#utility.yul\":13286:13379   */\n      tag_130\n      jump\t// in\n    tag_282:\n        /* \"#utility.yul\":13404:13406   */\n      0x20\n        /* \"#utility.yul\":13399:13402   */\n      dup3\n        /* \"#utility.yul\":13395:13407   */\n      add\n        /* \"#utility.yul\":13388:13407   */\n      swap1\n      pop\n        /* \"#utility.yul\":13047:13413   */\n      swap2\n      swap1\n      pop\n      jump\t// out\n        /* \"#utility.yul\":13419:13838   */\n    tag_52:\n        /* \"#utility.yul\":13585:13589   */\n      0x00\n        /* \"#utility.yul\":13623:13625   */\n      0x20\n        /* \"#utility.yul\":13612:13621   */\n      dup3\n        /* \"#utility.yul\":13608:13626   */\n      add\n        /* \"#utility.yul\":13600:13626   */\n      swap1\n      pop\n        /* \"#utility.yul\":13672:13681   */\n      dup2\n        /* \"#utility.yul\":13666:13670   */\n      dup2\n        /* \"#utility.yul\":13662:13682   */\n      sub\n        /* \"#utility.yul\":13658:13659   */\n      0x00\n        /* \"#utility.yul\":13647:13656   */\n      dup4\n        /* \"#utility.yul\":13643:13660   */\n      add\n        /* \"#utility.yul\":13636:13683   */\n      mstore\n        /* \"#utility.yul\":13700:13831   */\n      tag_284\n        /* \"#utility.yul\":13826:13830   */\n      dup2\n        /* \"#utility.yul\":13700:13831   */\n      tag_131\n      jump\t// in\n    tag_284:\n        /* \"#utility.yul\":13692:13831   */\n      swap1\n      pop\n        /* \"#utility.yul\":13419:13838   */\n      swap2\n      swap1\n      pop\n      jump\t// out\n        /* \"#utility.yul\":13844:14024   */\n    tag_132:\n        /* \"#utility.yul\":13892:13969   */\n      0x4e487b7100000000000000000000000000000000000000000000000000000000\n        /* \"#utility.yul\":13889:13890   */\n      0x00\n        /* \"#utility.yul\":13882:13970   */\n      mstore\n        /* \"#utility.yul\":13989:13993   */\n      0x11\n        /* \"#utility.yul\":13986:13987   */\n      0x04\n        /* \"#utility.yul\":13979:13994   */\n      mstore\n        /* \"#utility.yul\":14013:14017   */\n      0x24\n        /* \"#utility.yul\":14010:14011   */\n      0x00\n        /* \"#utility.yul\":14003:14018   */\n      revert\n        /* \"#utility.yul\":14030:14224   */\n    tag_55:\n        /* \"#utility.yul\":14070:14074   */\n      0x00\n        /* \"#utility.yul\":14090:14110   */\n      tag_287\n        /* \"#utility.yul\":14108:14109   */\n      dup3\n        /* \"#utility.yul\":14090:14110   */\n      tag_116\n      jump\t// in\n    tag_287:\n        /* \"#utility.yul\":14085:14110   */\n      swap2\n      pop\n        /* \"#utility.yul\":14124:14144   */\n      tag_288\n        /* \"#utility.yul\":14142:14143   */\n      dup4\n        /* \"#utility.yul\":14124:14144   */\n      tag_116\n      jump\t// in\n    tag_288:\n        /* \"#utility.yul\":14119:14144   */\n      swap3\n      pop\n        /* \"#utility.yul\":14168:14169   */\n      dup3\n        /* \"#utility.yul\":14165:14166   */\n      dup3\n        /* \"#utility.yul\":14161:14170   */\n      sub\n        /* \"#utility.yul\":14153:14170   */\n      swap1\n      pop\n        /* \"#utility.yul\":14192:14193   */\n      dup2\n        /* \"#utility.yul\":14186:14190   */\n      dup2\n        /* \"#utility.yul\":14183:14194   */\n      gt\n        /* \"#utility.yul\":14180:14217   */\n      iszero\n      tag_289\n      jumpi\n        /* \"#utility.yul\":14197:14215   */\n      tag_290\n      tag_132\n      jump\t// in\n    tag_290:\n        /* \"#utility.yul\":14180:14217   */\n    tag_289:\n        /* \"#utility.yul\":14030:14224   */\n      swap3\n      swap2\n      pop\n      pop\n      jump\t// out\n        /* \"#utility.yul\":14230:14411   */\n    tag_133:\n        /* \"#utility.yul\":14370:14403   */\n      0x54686973206c696e6b496420616c726561642068617320616e206f776e657200\n        /* \"#utility.yul\":14366:14367   */\n      0x00\n        /* \"#utility.yul\":14358:14364   */\n      dup3\n        /* \"#utility.yul\":14354:14368   */\n      add\n        /* \"#utility.yul\":14347:14404   */\n      mstore\n        /* \"#utility.yul\":14230:14411   */\n      pop\n      jump\t// out\n        /* \"#utility.yul\":14417:14783   */\n    tag_134:\n        /* \"#utility.yul\":14559:14562   */\n      0x00\n        /* \"#utility.yul\":14580:14647   */\n      tag_293\n        /* \"#utility.yul\":14644:14646   */\n      0x1f\n        /* \"#utility.yul\":14639:14642   */\n      dup4\n        /* \"#utility.yul\":14580:14647   */\n      tag_125\n      jump\t// in\n    tag_293:\n        /* \"#utility.yul\":14573:14647   */\n      swap2\n      pop\n        /* \"#utility.yul\":14656:14749   */\n      tag_294\n        /* \"#utility.yul\":14745:14748   */\n      dup3\n        /* \"#utility.yul\":14656:14749   */\n      tag_133\n      jump\t// in\n    tag_294:\n        /* \"#utility.yul\":14774:14776   */\n      0x20\n        /* \"#utility.yul\":14769:14772   */\n      dup3\n        /* \"#utility.yul\":14765:14777   */\n      add\n        /* \"#utility.yul\":14758:14777   */\n      swap1\n      pop\n        /* \"#utility.yul\":14417:14783   */\n      swap2\n      swap1\n      pop\n      jump\t// out\n        /* \"#utility.yul\":14789:15208   */\n    tag_80:\n        /* \"#utility.yul\":14955:14959   */\n      0x00\n        /* \"#utility.yul\":14993:14995   */\n      0x20\n        /* \"#utility.yul\":14982:14991   */\n      dup3\n        /* \"#utility.yul\":14978:14996   */\n      add\n        /* \"#utility.yul\":14970:14996   */\n      swap1\n      pop\n        /* \"#utility.yul\":15042:15051   */\n      dup2\n        /* \"#utility.yul\":15036:15040   */\n      dup2\n        /* \"#utility.yul\":15032:15052   */\n      sub\n        /* \"#utility.yul\":15028:15029   */\n      0x00\n        /* \"#utility.yul\":15017:15026   */\n      dup4\n        /* \"#utility.yul\":15013:15030   */\n      add\n        /* \"#utility.yul\":15006:15053   */\n      mstore\n        /* \"#utility.yul\":15070:15201   */\n      tag_296\n        /* \"#utility.yul\":15196:15200   */\n      dup2\n        /* \"#utility.yul\":15070:15201   */\n      tag_134\n      jump\t// in\n    tag_296:\n        /* \"#utility.yul\":15062:15201   */\n      swap1\n      pop\n        /* \"#utility.yul\":14789:15208   */\n      swap2\n      swap1\n      pop\n      jump\t// out\n        /* \"#utility.yul\":15214:15374   */\n    tag_135:\n        /* \"#utility.yul\":15354:15366   */\n      0x46656520746f206c6f7700000000000000000000000000000000000000000000\n        /* \"#utility.yul\":15350:15351   */\n      0x00\n        /* \"#utility.yul\":15342:15348   */\n      dup3\n        /* \"#utility.yul\":15338:15352   */\n      add\n        /* \"#utility.yul\":15331:15367   */\n      mstore\n        /* \"#utility.yul\":15214:15374   */\n      pop\n      jump\t// out\n        /* \"#utility.yul\":15380:15746   */\n    tag_136:\n        /* \"#utility.yul\":15522:15525   */\n      0x00\n        /* \"#utility.yul\":15543:15610   */\n      tag_299\n        /* \"#utility.yul\":15607:15609   */\n      0x0a\n        /* \"#utility.yul\":15602:15605   */\n      dup4\n        /* \"#utility.yul\":15543:15610   */\n      tag_125\n      jump\t// in\n    tag_299:\n        /* \"#utility.yul\":15536:15610   */\n      swap2\n      pop\n        /* \"#utility.yul\":15619:15712   */\n      tag_300\n        /* \"#utility.yul\":15708:15711   */\n      dup3\n        /* \"#utility.yul\":15619:15712   */\n      tag_135\n      jump\t// in\n    tag_300:\n        /* \"#utility.yul\":15737:15739   */\n      0x20\n        /* \"#utility.yul\":15732:15735   */\n      dup3\n        /* \"#utility.yul\":15728:15740   */\n      add\n        /* \"#utility.yul\":15721:15740   */\n      swap1\n      pop\n        /* \"#utility.yul\":15380:15746   */\n      swap2\n      swap1\n      pop\n      jump\t// out\n        /* \"#utility.yul\":15752:16171   */\n    tag_84:\n        /* \"#utility.yul\":15918:15922   */\n      0x00\n        /* \"#utility.yul\":15956:15958   */\n      0x20\n        /* \"#utility.yul\":15945:15954   */\n      dup3\n        /* \"#utility.yul\":15941:15959   */\n      add\n        /* \"#utility.yul\":15933:15959   */\n      swap1\n      pop\n        /* \"#utility.yul\":16005:16014   */\n      dup2\n        /* \"#utility.yul\":15999:16003   */\n      dup2\n        /* \"#utility.yul\":15995:16015   */\n      sub\n        /* \"#utility.yul\":15991:15992   */\n      0x00\n        /* \"#utility.yul\":15980:15989   */\n      dup4\n        /* \"#utility.yul\":15976:15993   */\n      add\n        /* \"#utility.yul\":15969:16016   */\n      mstore\n        /* \"#utility.yul\":16033:16164   */\n      tag_302\n        /* \"#utility.yul\":16159:16163   */\n      dup2\n        /* \"#utility.yul\":16033:16164   */\n      tag_136\n      jump\t// in\n    tag_302:\n        /* \"#utility.yul\":16025:16164   */\n      swap1\n      pop\n        /* \"#utility.yul\":15752:16171   */\n      swap2\n      swap1\n      pop\n      jump\t// out\n        /* \"#utility.yul\":16177:16318   */\n    tag_137:\n        /* \"#utility.yul\":16226:16230   */\n      0x00\n        /* \"#utility.yul\":16249:16252   */\n      dup2\n        /* \"#utility.yul\":16241:16252   */\n      swap1\n      pop\n        /* \"#utility.yul\":16272:16275   */\n      dup2\n        /* \"#utility.yul\":16269:16270   */\n      0x00\n        /* \"#utility.yul\":16262:16276   */\n      mstore\n        /* \"#utility.yul\":16306:16310   */\n      0x20\n        /* \"#utility.yul\":16303:16304   */\n      0x00\n        /* \"#utility.yul\":16293:16311   */\n      keccak256\n        /* \"#utility.yul\":16285:16311   */\n      swap1\n      pop\n        /* \"#utility.yul\":16177:16318   */\n      swap2\n      swap1\n      pop\n      jump\t// out\n        /* \"#utility.yul\":16324:16417   */\n    tag_138:\n        /* \"#utility.yul\":16361:16367   */\n      0x00\n        /* \"#utility.yul\":16408:16410   */\n      0x20\n        /* \"#utility.yul\":16403:16405   */\n      0x1f\n        /* \"#utility.yul\":16396:16401   */\n      dup4\n        /* \"#utility.yul\":16392:16406   */\n      add\n        /* \"#utility.yul\":16388:16411   */\n      div\n        /* \"#utility.yul\":16378:16411   */\n      swap1\n      pop\n        /* \"#utility.yul\":16324:16417   */\n      swap2\n      swap1\n      pop\n      jump\t// out\n        /* \"#utility.yul\":16423:16530   */\n    tag_139:\n        /* \"#utility.yul\":16467:16475   */\n      0x00\n        /* \"#utility.yul\":16517:16522   */\n      dup3\n        /* \"#utility.yul\":16511:16515   */\n      dup3\n        /* \"#utility.yul\":16507:16523   */\n      shl\n        /* \"#utility.yul\":16486:16523   */\n      swap1\n      pop\n        /* \"#utility.yul\":16423:16530   */\n      swap3\n      swap2\n      pop\n      pop\n      jump\t// out\n        /* \"#utility.yul\":16536:16929   */\n    tag_140:\n        /* \"#utility.yul\":16605:16611   */\n      0x00\n        /* \"#utility.yul\":16655:16656   */\n      0x08\n        /* \"#utility.yul\":16643:16653   */\n      dup4\n        /* \"#utility.yul\":16639:16657   */\n      mul\n        /* \"#utility.yul\":16678:16775   */\n      tag_307\n        /* \"#utility.yul\":16708:16774   */\n      0xffffffffffffffffffffffffffffffffffffffffffffffffffffffffffffffff\n        /* \"#utility.yul\":16697:16706   */\n      dup3\n        /* \"#utility.yul\":16678:16775   */\n      tag_139\n      jump\t// in\n    tag_307:\n        /* \"#utility.yul\":16796:16835   */\n      tag_308\n        /* \"#utility.yul\":16826:16834   */\n      dup7\n        /* \"#utility.yul\":16815:16824   */\n      dup4\n        /* \"#utility.yul\":16796:16835   */\n      tag_139\n      jump\t// in\n    tag_308:\n        /* \"#utility.yul\":16784:16835   */\n      swap6\n      pop\n        /* \"#utility.yul\":16868:16872   */\n      dup1\n        /* \"#utility.yul\":16864:16873   */\n      not\n        /* \"#utility.yul\":16857:16862   */\n      dup5\n        /* \"#utility.yul\":16853:16874   */\n      and\n        /* \"#utility.yul\":16844:16874   */\n      swap4\n      pop\n        /* \"#utility.yul\":16917:16921   */\n      dup1\n        /* \"#utility.yul\":16907:16915   */\n      dup7\n        /* \"#utility.yul\":16903:16922   */\n      and\n        /* \"#utility.yul\":16896:16901   */\n      dup5\n        /* \"#utility.yul\":16893:16923   */\n      or\n        /* \"#utility.yul\":16883:16923   */\n      swap3\n      pop\n        /* \"#utility.yul\":16612:16929   */\n      pop\n      pop\n        /* \"#utility.yul\":16536:16929   */\n      swap4\n      swap3\n      pop\n      pop\n      pop\n      jump\t// out\n        /* \"#utility.yul\":16935:16995   */\n    tag_141:\n        /* \"#utility.yul\":16963:16966   */\n      0x00\n        /* \"#utility.yul\":16984:16989   */\n      dup2\n        /* \"#utility.yul\":16977:16989   */\n      swap1\n      pop\n        /* \"#utility.yul\":16935:16995   */\n      swap2\n      swap1\n      pop\n      jump\t// out\n        /* \"#utility.yul\":17001:17143   */\n    tag_142:\n        /* \"#utility.yul\":17051:17060   */\n      0x00\n        /* \"#utility.yul\":17084:17137   */\n      tag_311\n        /* \"#utility.yul\":17102:17136   */\n      tag_312\n        /* \"#utility.yul\":17111:17135   */\n      tag_313\n        /* \"#utility.yul\":17129:17134   */\n      dup5\n        /* \"#utility.yul\":17111:17135   */\n      tag_116\n      jump\t// in\n    tag_313:\n        /* \"#utility.yul\":17102:17136   */\n      tag_141\n      jump\t// in\n    tag_312:\n        /* \"#utility.yul\":17084:17137   */\n      tag_116\n      jump\t// in\n    tag_311:\n        /* \"#utility.yul\":17071:17137   */\n      swap1\n      pop\n        /* \"#utility.yul\":17001:17143   */\n      swap2\n      swap1\n      pop\n      jump\t// out\n        /* \"#utility.yul\":17149:17224   */\n    tag_143:\n        /* \"#utility.yul\":17192:17195   */\n      0x00\n        /* \"#utility.yul\":17213:17218   */\n      dup2\n        /* \"#utility.yul\":17206:17218   */\n      swap1\n      pop\n        /* \"#utility.yul\":17149:17224   */\n      swap2\n      swap1\n      pop\n      jump\t// out\n        /* \"#utility.yul\":17230:17499   */\n    tag_144:\n        /* \"#utility.yul\":17340:17379   */\n      tag_316\n        /* \"#utility.yul\":17371:17378   */\n      dup4\n        /* \"#utility.yul\":17340:17379   */\n      tag_142\n      jump\t// in\n    tag_316:\n        /* \"#utility.yul\":17401:17492   */\n      tag_317\n        /* \"#utility.yul\":17450:17491   */\n      tag_318\n        /* \"#utility.yul\":17474:17490   */\n      dup3\n        /* \"#utility.yul\":17450:17491   */\n      tag_143\n      jump\t// in\n    tag_318:\n        /* \"#utility.yul\":17442:17448   */\n      dup5\n        /* \"#utility.yul\":17435:17439   */\n      dup5\n        /* \"#utility.yul\":17429:17440   */\n      sload\n        /* \"#utility.yul\":17401:17492   */\n      tag_140\n      jump\t// in\n    tag_317:\n        /* \"#utility.yul\":17395:17399   */\n      dup3\n        /* \"#utility.yul\":17388:17493   */\n      sstore\n        /* \"#utility.yul\":17306:17499   */\n      pop\n        /* \"#utility.yul\":17230:17499   */\n      pop\n      pop\n      pop\n      jump\t// out\n        /* \"#utility.yul\":17505:17578   */\n    tag_145:\n        /* \"#utility.yul\":17550:17553   */\n      0x00\n        /* \"#utility.yul\":17571:17572   */\n      0x00\n        /* \"#utility.yul\":17564:17572   */\n      swap1\n      pop\n        /* \"#utility.yul\":17505:17578   */\n      swap1\n      jump\t// out\n        /* \"#utility.yul\":17584:17773   */\n    tag_146:\n        /* \"#utility.yul\":17661:17693   */\n      tag_321\n      tag_145\n      jump\t// in\n    tag_321:\n        /* \"#utility.yul\":17702:17767   */\n      tag_322\n        /* \"#utility.yul\":17760:17766   */\n      dup2\n        /* \"#utility.yul\":17752:17758   */\n      dup5\n        /* \"#utility.yul\":17746:17750   */\n      dup5\n        /* \"#utility.yul\":17702:17767   */\n      tag_144\n      jump\t// in\n    tag_322:\n        /* \"#utility.yul\":17637:17773   */\n      pop\n        /* \"#utility.yul\":17584:17773   */\n      pop\n      pop\n      jump\t// out\n        /* \"#utility.yul\":17779:17965   */\n    tag_147:\n        /* \"#utility.yul\":17839:17959   */\n    tag_324:\n        /* \"#utility.yul\":17856:17859   */\n      dup2\n        /* \"#utility.yul\":17849:17854   */\n      dup2\n        /* \"#utility.yul\":17846:17860   */\n      lt\n        /* \"#utility.yul\":17839:17959   */\n      iszero\n      tag_326\n      jumpi\n        /* \"#utility.yul\":17910:17949   */\n      tag_327\n        /* \"#utility.yul\":17947:17948   */\n      0x00\n        /* \"#utility.yul\":17940:17945   */\n      dup3\n        /* \"#utility.yul\":17910:17949   */\n      tag_146\n      jump\t// in\n    tag_327:\n        /* \"#utility.yul\":17883:17884   */\n      0x01\n        /* \"#utility.yul\":17876:17881   */\n      dup2\n        /* \"#utility.yul\":17872:17885   */\n      add\n        /* \"#utility.yul\":17863:17885   */\n      swap1\n      pop\n        /* \"#utility.yul\":17839:17959   */\n      jump(tag_324)\n    tag_326:\n        /* \"#utility.yul\":17779:17965   */\n      pop\n      pop\n      jump\t// out\n        /* \"#utility.yul\":17971:18514   */\n    tag_148:\n        /* \"#utility.yul\":18072:18074   */\n      0x1f\n        /* \"#utility.yul\":18067:18070   */\n      dup3\n        /* \"#utility.yul\":18064:18075   */\n      gt\n        /* \"#utility.yul\":18061:18507   */\n      iszero\n      tag_329\n      jumpi\n        /* \"#utility.yul\":18106:18144   */\n      tag_330\n        /* \"#utility.yul\":18138:18143   */\n      dup2\n        /* \"#utility.yul\":18106:18144   */\n      tag_137\n      jump\t// in\n    tag_330:\n        /* \"#utility.yul\":18190:18219   */\n      tag_331\n        /* \"#utility.yul\":18208:18218   */\n      dup5\n        /* \"#utility.yul\":18190:18219   */\n      tag_138\n      jump\t// in\n    tag_331:\n        /* \"#utility.yul\":18180:18188   */\n      dup2\n        /* \"#utility.yul\":18176:18220   */\n      add\n        /* \"#utility.yul\":18373:18375   */\n      0x20\n        /* \"#utility.yul\":18361:18371   */\n      dup6\n        /* \"#utility.yul\":18358:18376   */\n      lt\n        /* \"#utility.yul\":18355:18404   */\n      iszero\n      tag_332\n      jumpi\n        /* \"#utility.yul\":18394:18402   */\n      dup2\n        /* \"#utility.yul\":18379:18402   */\n      swap1\n      pop\n        /* \"#utility.yul\":18355:18404   */\n    tag_332:\n        /* \"#utility.yul\":18417:18497   */\n      tag_333\n        /* \"#utility.yul\":18473:18495   */\n      tag_334\n        /* \"#utility.yul\":18491:18494   */\n      dup6\n        /* \"#utility.yul\":18473:18495   */\n      tag_138\n      jump\t// in\n    tag_334:\n        /* \"#utility.yul\":18463:18471   */\n      dup4\n        /* \"#utility.yul\":18459:18496   */\n      add\n        /* \"#utility.yul\":18446:18457   */\n      dup3\n        /* \"#utility.yul\":18417:18497   */\n      tag_147\n      jump\t// in\n    tag_333:\n        /* \"#utility.yul\":18076:18507   */\n      pop\n      pop\n        /* \"#utility.yul\":18061:18507   */\n    tag_329:\n        /* \"#utility.yul\":17971:18514   */\n      pop\n      pop\n      pop\n      jump\t// out\n        /* \"#utility.yul\":18520:18637   */\n    tag_149:\n        /* \"#utility.yul\":18574:18582   */\n      0x00\n        /* \"#utility.yul\":18624:18629   */\n      dup3\n        /* \"#utility.yul\":18618:18622   */\n      dup3\n        /* \"#utility.yul\":18614:18630   */\n      shr\n        /* \"#utility.yul\":18593:18630   */\n      swap1\n      pop\n        /* \"#utility.yul\":18520:18637   */\n      swap3\n      swap2\n      pop\n      pop\n      jump\t// out\n        /* \"#utility.yul\":18643:18812   */\n    tag_150:\n        /* \"#utility.yul\":18687:18693   */\n      0x00\n        /* \"#utility.yul\":18720:18771   */\n      tag_337\n        /* \"#utility.yul\":18768:18769   */\n      0x00\n        /* \"#utility.yul\":18764:18770   */\n      not\n        /* \"#utility.yul\":18756:18761   */\n      dup5\n        /* \"#utility.yul\":18753:18754   */\n      0x08\n        /* \"#utility.yul\":18749:18762   */\n      mul\n        /* \"#utility.yul\":18720:18771   */\n      tag_149\n      jump\t// in\n    tag_337:\n        /* \"#utility.yul\":18716:18772   */\n      not\n        /* \"#utility.yul\":18801:18805   */\n      dup1\n        /* \"#utility.yul\":18795:18799   */\n      dup4\n        /* \"#utility.yul\":18791:18806   */\n      and\n        /* \"#utility.yul\":18781:18806   */\n      swap2\n      pop\n        /* \"#utility.yul\":18694:18812   */\n      pop\n        /* \"#utility.yul\":18643:18812   */\n      swap3\n      swap2\n      pop\n      pop\n      jump\t// out\n        /* \"#utility.yul\":18817:19112   */\n    tag_151:\n        /* \"#utility.yul\":18893:18897   */\n      0x00\n        /* \"#utility.yul\":19039:19068   */\n      tag_339\n        /* \"#utility.yul\":19064:19067   */\n      dup4\n        /* \"#utility.yul\":19058:19062   */\n      dup4\n        /* \"#utility.yul\":19039:19068   */\n      tag_150\n      jump\t// in\n    tag_339:\n        /* \"#utility.yul\":19031:19068   */\n      swap2\n      pop\n        /* \"#utility.yul\":19101:19104   */\n      dup3\n        /* \"#utility.yul\":19098:19099   */\n      0x02\n        /* \"#utility.yul\":19094:19105   */\n      mul\n        /* \"#utility.yul\":19088:19092   */\n      dup3\n        /* \"#utility.yul\":19085:19106   */\n      or\n        /* \"#utility.yul\":19077:19106   */\n      swap1\n      pop\n        /* \"#utility.yul\":18817:19112   */\n      swap3\n      swap2\n      pop\n      pop\n      jump\t// out\n        /* \"#utility.yul\":19117:20512   */\n    tag_87:\n        /* \"#utility.yul\":19234:19271   */\n      tag_341\n        /* \"#utility.yul\":19267:19270   */\n      dup3\n        /* \"#utility.yul\":19234:19271   */\n      tag_111\n      jump\t// in\n    tag_341:\n        /* \"#utility.yul\":19336:19354   */\n      0xffffffffffffffff\n        /* \"#utility.yul\":19328:19334   */\n      dup2\n        /* \"#utility.yul\":19325:19355   */\n      gt\n        /* \"#utility.yul\":19322:19378   */\n      iszero\n      tag_342\n      jumpi\n        /* \"#utility.yul\":19358:19376   */\n      tag_343\n      tag_95\n      jump\t// in\n    tag_343:\n        /* \"#utility.yul\":19322:19378   */\n    tag_342:\n        /* \"#utility.yul\":19402:19440   */\n      tag_344\n        /* \"#utility.yul\":19434:19438   */\n      dup3\n        /* \"#utility.yul\":19428:19439   */\n      sload\n        /* \"#utility.yul\":19402:19440   */\n      tag_38\n      jump\t// in\n    tag_344:\n        /* \"#utility.yul\":19487:19554   */\n      tag_345\n        /* \"#utility.yul\":19547:19553   */\n      dup3\n        /* \"#utility.yul\":19539:19545   */\n      dup3\n        /* \"#utility.yul\":19533:19537   */\n      dup6\n        /* \"#utility.yul\":19487:19554   */\n      tag_148\n      jump\t// in\n    tag_345:\n        /* \"#utility.yul\":19581:19582   */\n      0x00\n        /* \"#utility.yul\":19605:19609   */\n      0x20\n        /* \"#utility.yul\":19592:19609   */\n      swap1\n      pop\n        /* \"#utility.yul\":19637:19639   */\n      0x1f\n        /* \"#utility.yul\":19629:19635   */\n      dup4\n        /* \"#utility.yul\":19626:19640   */\n      gt\n        /* \"#utility.yul\":19654:19655   */\n      0x01\n        /* \"#utility.yul\":19649:20267   */\n      dup2\n      eq\n      tag_347\n      jumpi\n        /* \"#utility.yul\":20311:20312   */\n      0x00\n        /* \"#utility.yul\":20328:20334   */\n      dup5\n        /* \"#utility.yul\":20325:20402   */\n      iszero\n      tag_348\n      jumpi\n        /* \"#utility.yul\":20377:20386   */\n      dup3\n        /* \"#utility.yul\":20372:20375   */\n      dup8\n        /* \"#utility.yul\":20368:20387   */\n      add\n        /* \"#utility.yul\":20362:20388   */\n      mload\n        /* \"#utility.yul\":20353:20388   */\n      swap1\n      pop\n        /* \"#utility.yul\":20325:20402   */\n    tag_348:\n        /* \"#utility.yul\":20428:20495   */\n      tag_349\n        /* \"#utility.yul\":20488:20494   */\n      dup6\n        /* \"#utility.yul\":20481:20486   */\n      dup3\n        /* \"#utility.yul\":20428:20495   */\n      tag_151\n      jump\t// in\n    tag_349:\n        /* \"#utility.yul\":20422:20426   */\n      dup7\n        /* \"#utility.yul\":20415:20496   */\n      sstore\n        /* \"#utility.yul\":20284:20506   */\n      pop\n        /* \"#utility.yul\":19619:20506   */\n      jump(tag_346)\n        /* \"#utility.yul\":19649:20267   */\n    tag_347:\n        /* \"#utility.yul\":19701:19705   */\n      0x1f\n        /* \"#utility.yul\":19697:19706   */\n      not\n        /* \"#utility.yul\":19689:19695   */\n      dup5\n        /* \"#utility.yul\":19685:19707   */\n      and\n        /* \"#utility.yul\":19735:19772   */\n      tag_350\n        /* \"#utility.yul\":19767:19771   */\n      dup7\n        /* \"#utility.yul\":19735:19772   */\n      tag_137\n      jump\t// in\n    tag_350:\n        /* \"#utility.yul\":19794:19795   */\n      0x00\n        /* \"#utility.yul\":19808:20016   */\n    tag_351:\n        /* \"#utility.yul\":19822:19829   */\n      dup3\n        /* \"#utility.yul\":19819:19820   */\n      dup2\n        /* \"#utility.yul\":19816:19830   */\n      lt\n        /* \"#utility.yul\":19808:20016   */\n      iszero\n      tag_353\n      jumpi\n        /* \"#utility.yul\":19901:19910   */\n      dup5\n        /* \"#utility.yul\":19896:19899   */\n      dup10\n        /* \"#utility.yul\":19892:19911   */\n      add\n        /* \"#utility.yul\":19886:19912   */\n      mload\n        /* \"#utility.yul\":19878:19884   */\n      dup3\n        /* \"#utility.yul\":19871:19913   */\n      sstore\n        /* \"#utility.yul\":19952:19953   */\n      0x01\n        /* \"#utility.yul\":19944:19950   */\n      dup3\n        /* \"#utility.yul\":19940:19954   */\n      add\n        /* \"#utility.yul\":19930:19954   */\n      swap2\n      pop\n        /* \"#utility.yul\":19999:20001   */\n      0x20\n        /* \"#utility.yul\":19988:19997   */\n      dup6\n        /* \"#utility.yul\":19984:20002   */\n      add\n        /* \"#utility.yul\":19971:20002   */\n      swap5\n      pop\n        /* \"#utility.yul\":19845:19849   */\n      0x20\n        /* \"#utility.yul\":19842:19843   */\n      dup2\n        /* \"#utility.yul\":19838:19850   */\n      add\n        /* \"#utility.yul\":19833:19850   */\n      swap1\n      pop\n        /* \"#utility.yul\":19808:20016   */\n      jump(tag_351)\n    tag_353:\n        /* \"#utility.yul\":20044:20050   */\n      dup7\n        /* \"#utility.yul\":20035:20042   */\n      dup4\n        /* \"#utility.yul\":20032:20051   */\n      lt\n        /* \"#utility.yul\":20029:20208   */\n      iszero\n      tag_354\n      jumpi\n        /* \"#utility.yul\":20102:20111   */\n      dup5\n        /* \"#utility.yul\":20097:20100   */\n      dup10\n        /* \"#utility.yul\":20093:20112   */\n      add\n        /* \"#utility.yul\":20087:20113   */\n      mload\n        /* \"#utility.yul\":20145:20193   */\n      tag_355\n        /* \"#utility.yul\":20187:20191   */\n      0x1f\n        /* \"#utility.yul\":20179:20185   */\n      dup10\n        /* \"#utility.yul\":20175:20192   */\n      and\n        /* \"#utility.yul\":20164:20173   */\n      dup3\n        /* \"#utility.yul\":20145:20193   */\n      tag_150\n      jump\t// in\n    tag_355:\n        /* \"#utility.yul\":20137:20143   */\n      dup4\n        /* \"#utility.yul\":20130:20194   */\n      sstore\n        /* \"#utility.yul\":20052:20208   */\n      pop\n        /* \"#utility.yul\":20029:20208   */\n    tag_354:\n        /* \"#utility.yul\":20254:20255   */\n      0x01\n        /* \"#utility.yul\":20250:20251   */\n      0x02\n        /* \"#utility.yul\":20242:20248   */\n      dup9\n        /* \"#utility.yul\":20238:20252   */\n      mul\n        /* \"#utility.yul\":20234:20256   */\n      add\n        /* \"#utility.yul\":20228:20232   */\n      dup9\n        /* \"#utility.yul\":20221:20257   */\n      sstore\n        /* \"#utility.yul\":19656:20267   */\n      pop\n      pop\n      pop\n        /* \"#utility.yul\":19619:20506   */\n    tag_346:\n      pop\n        /* \"#utility.yul\":19209:20512   */\n      pop\n      pop\n      pop\n        /* \"#utility.yul\":19117:20512   */\n      pop\n      pop\n      jump\t// out\n\n    auxdata: 0xa2646970667358221220aa24df483a9cd7b90c767d8b95fb31091a4cfdbaabb8cb4a29cd2f0b048e98e664736f6c634300081e0033\n}\n",
				"bytecode": {
					"linkReferences": {},
					"object": "608060405260025f553480156012575f5ffd5b506114e1806100205f395ff3fe608060405260043610610049575f3560e01c806313bd20e21461004d578063429cad86146100895780637476452a146100a5578063e1489191146100e1578063fc5f2b781461010b575b5f5ffd5b348015610058575f5ffd5b50610073600480360381019061006e9190610c15565b610133565b6040516100809190610c89565b60405180910390f35b6100a3600480360381019061009e9190610cff565b610175565b005b3480156100b0575f5ffd5b506100cb60048036038101906100c69190610cff565b6104c3565b6040516100d89190610e1e565b60405180910390f35b3480156100ec575f5ffd5b506100f561068f565b6040516101029190610e4d565b60405180910390f35b348015610116575f5ffd5b50610131600480360381019061012c9190610e90565b610694565b005b600282805160208101820180518482526020830160208501208183528095505050505050602052805f5260405f205f915091509054906101000a900460ff1681565b5f60018383604051610188929190610f4f565b90815260200160405180910390206040518060600160405290815f820180546101b090610f94565b80601f01602080910402602001604051908101604052809291908181526020018280546101dc90610f94565b80156102275780601f106101fe57610100808354040283529160200191610227565b820191905f5260205f20905b81548152906001019060200180831161020a57829003601f168201915b50505050508152602001600182015f9054906101000a900473ffffffffffffffffffffffffffffffffffffffff1673ffffffffffffffffffffffffffffffffffffffff1673ffffffffffffffffffffffffffffffffffffffff16815260200160028201548152505090505f73ffffffffffffffffffffffffffffffffffffffff16816020015173ffffffffffffffffffffffffffffffffffffffff1603610303576040517f08c379a00000000000000000000000000000000000000000000000000000000081526004016102fa9061101e565b60405180910390fd5b5f151560028484604051610318929190610f4f565b90815260200160405180910390205f3373ffffffffffffffffffffffffffffffffffffffff1673ffffffffffffffffffffffffffffffffffffffff1681526020019081526020015f205f9054906101000a900460ff161515146103b0576040517f08c379a00000000000000000000000000000000000000000000000000000000081526004016103a790611086565b60405180910390fd5b80604001513410156103f7576040517f08c379a00000000000000000000000000000000000000000000000000000000081526004016103ee906110ee565b60405180910390fd5b60016002848460405161040b929190610f4f565b90815260200160405180910390205f3373ffffffffffffffffffffffffffffffffffffffff1673ffffffffffffffffffffffffffffffffffffffff1681526020019081526020015f205f6101000a81548160ff021916908315150217905550806020015173ffffffffffffffffffffffffffffffffffffffff166108fc5f54346104959190611139565b90811502906040515f60405180830381858888f193505050501580156104bd573d5f5f3e3d5ffd5b50505050565b6104cb610a39565b5f600184846040516104de929190610f4f565b90815260200160405180910390206040518060600160405290815f8201805461050690610f94565b80601f016020809104026020016040519081016040528092919081815260200182805461053290610f94565b801561057d5780601f106105545761010080835404028352916020019161057d565b820191905f5260205f20905b81548152906001019060200180831161056057829003601f168201915b50505050508152602001600182015f9054906101000a900473ffffffffffffffffffffffffffffffffffffffff1673ffffffffffffffffffffffffffffffffffffffff1673ffffffffffffffffffffffffffffffffffffffff16815260200160028201548152505090505f8160400151036105fb5780915050610689565b5f151560028585604051610610929190610f4f565b90815260200160405180910390205f3373ffffffffffffffffffffffffffffffffffffffff1673ffffffffffffffffffffffffffffffffffffffff1681526020019081526020015f205f9054906101000a900460ff161515036106845760405180602001604052805f815250815f01819052505b809150505b92915050565b5f5481565b5f600184846040516106a7929190610f4f565b90815260200160405180910390206040518060600160405290815f820180546106cf90610f94565b80601f01602080910402602001604051908101604052809291908181526020018280546106fb90610f94565b80156107465780601f1061071d57610100808354040283529160200191610746565b820191905f5260205f20905b81548152906001019060200180831161072957829003601f168201915b50505050508152602001600182015f9054906101000a900473ffffffffffffffffffffffffffffffffffffffff1673ffffffffffffffffffffffffffffffffffffffff1673ffffffffffffffffffffffffffffffffffffffff16815260200160028201548152505090505f73ffffffffffffffffffffffffffffffffffffffff16816020015173ffffffffffffffffffffffffffffffffffffffff16148061081d57503373ffffffffffffffffffffffffffffffffffffffff16816020015173ffffffffffffffffffffffffffffffffffffffff16145b61085c576040517f08c379a0000000000000000000000000000000000000000000000000000000008152600401610853906111b6565b60405180910390fd5b5f82148061086a57505f5482115b6108a9576040517f08c379a00000000000000000000000000000000000000000000000000000000081526004016108a09061121e565b60405180910390fd5b85858080601f0160208091040260200160405190810160405280939291908181526020018383808284375f81840152601f19601f82011690508083019250505050505050815f01819052508181604001818152505033816020019073ffffffffffffffffffffffffffffffffffffffff16908173ffffffffffffffffffffffffffffffffffffffff16815250508060018585604051610949929190610f4f565b90815260200160405180910390205f820151815f01908161096a91906113dc565b506020820151816001015f6101000a81548173ffffffffffffffffffffffffffffffffffffffff021916908373ffffffffffffffffffffffffffffffffffffffff160217905550604082015181600201559050506001600285856040516109d2929190610f4f565b90815260200160405180910390205f3373ffffffffffffffffffffffffffffffffffffffff1673ffffffffffffffffffffffffffffffffffffffff1681526020019081526020015f205f6101000a81548160ff021916908315150217905550505050505050565b6040518060600160405280606081526020015f73ffffffffffffffffffffffffffffffffffffffff1681526020015f81525090565b5f604051905090565b5f5ffd5b5f5ffd5b5f5ffd5b5f5ffd5b5f601f19601f8301169050919050565b7f4e487b71000000000000000000000000000000000000000000000000000000005f52604160045260245ffd5b610acd82610a87565b810181811067ffffffffffffffff82111715610aec57610aeb610a97565b5b80604052505050565b5f610afe610a6e565b9050610b0a8282610ac4565b919050565b5f67ffffffffffffffff821115610b2957610b28610a97565b5b610b3282610a87565b9050602081019050919050565b828183375f83830152505050565b5f610b5f610b5a84610b0f565b610af5565b905082815260208101848484011115610b7b57610b7a610a83565b5b610b86848285610b3f565b509392505050565b5f82601f830112610ba257610ba1610a7f565b5b8135610bb2848260208601610b4d565b91505092915050565b5f73ffffffffffffffffffffffffffffffffffffffff82169050919050565b5f610be482610bbb565b9050919050565b610bf481610bda565b8114610bfe575f5ffd5b50565b5f81359050610c0f81610beb565b92915050565b5f5f60408385031215610c2b57610c2a610a77565b5b5f83013567ffffffffffffffff811115610c4857610c47610a7b565b5b610c5485828601610b8e565b9250506020610c6585828601610c01565b9150509250929050565b5f8115159050919050565b610c8381610c6f565b82525050565b5f602082019050610c9c5f830184610c7a565b92915050565b5f5ffd5b5f5ffd5b5f5f83601f840112610cbf57610cbe610a7f565b5b8235905067ffffffffffffffff811115610cdc57610cdb610ca2565b5b602083019150836001820283011115610cf857610cf7610ca6565b5b9250929050565b5f5f60208385031215610d1557610d14610a77565b5b5f83013567ffffffffffffffff811115610d3257610d31610a7b565b5b610d3e85828601610caa565b92509250509250929050565b5f81519050919050565b5f82825260208201905092915050565b8281835e5f83830152505050565b5f610d7c82610d4a565b610d868185610d54565b9350610d96818560208601610d64565b610d9f81610a87565b840191505092915050565b610db381610bda565b82525050565b5f819050919050565b610dcb81610db9565b82525050565b5f606083015f8301518482035f860152610deb8282610d72565b9150506020830151610e006020860182610daa565b506040830151610e136040860182610dc2565b508091505092915050565b5f6020820190508181035f830152610e368184610dd1565b905092915050565b610e4781610db9565b82525050565b5f602082019050610e605f830184610e3e565b92915050565b610e6f81610db9565b8114610e79575f5ffd5b50565b5f81359050610e8a81610e66565b92915050565b5f5f5f5f5f60608688031215610ea957610ea8610a77565b5b5f86013567ffffffffffffffff811115610ec657610ec5610a7b565b5b610ed288828901610caa565b9550955050602086013567ffffffffffffffff811115610ef557610ef4610a7b565b5b610f0188828901610caa565b93509350506040610f1488828901610e7c565b9150509295509295909350565b5f81905092915050565b5f610f368385610f21565b9350610f43838584610b3f565b82840190509392505050565b5f610f5b828486610f2b565b91508190509392505050565b7f4e487b71000000000000000000000000000000000000000000000000000000005f52602260045260245ffd5b5f6002820490506001821680610fab57607f821691505b602082108103610fbe57610fbd610f67565b5b50919050565b5f82825260208201905092915050565b7f4c696e6b206e6f7420666f756e640000000000000000000000000000000000005f82015250565b5f611008600e83610fc4565b915061101382610fd4565b602082019050919050565b5f6020820190508181035f83015261103581610ffc565b9050919050565b7f596f7520616c72656164792068617665206163636573730000000000000000005f82015250565b5f611070601783610fc4565b915061107b8261103c565b602082019050919050565b5f6020820190508181035f83015261109d81611064565b9050919050565b7f496e73756666696369656e74207061796d656e740000000000000000000000005f82015250565b5f6110d8601483610fc4565b91506110e3826110a4565b602082019050919050565b5f6020820190508181035f830152611105816110cc565b9050919050565b7f4e487b71000000000000000000000000000000000000000000000000000000005f52601160045260245ffd5b5f61114382610db9565b915061114e83610db9565b92508282039050818111156111665761116561110c565b5b92915050565b7f54686973206c696e6b496420616c726561642068617320616e206f776e6572005f82015250565b5f6111a0601f83610fc4565b91506111ab8261116c565b602082019050919050565b5f6020820190508181035f8301526111cd81611194565b9050919050565b7f46656520746f206c6f77000000000000000000000000000000000000000000005f82015250565b5f611208600a83610fc4565b9150611213826111d4565b602082019050919050565b5f6020820190508181035f830152611235816111fc565b9050919050565b5f819050815f5260205f209050919050565b5f6020601f8301049050919050565b5f82821b905092915050565b5f600883026112987fffffffffffffffffffffffffffffffffffffffffffffffffffffffffffffffff8261125d565b6112a2868361125d565b95508019841693508086168417925050509392505050565b5f819050919050565b5f6112dd6112d86112d384610db9565b6112ba565b610db9565b9050919050565b5f819050919050565b6112f6836112c3565b61130a611302826112e4565b848454611269565b825550505050565b5f5f905090565b611321611312565b61132c8184846112ed565b505050565b5b8181101561134f576113445f82611319565b600181019050611332565b5050565b601f821115611394576113658161123c565b61136e8461124e565b8101602085101561137d578190505b6113916113898561124e565b830182611331565b50505b505050565b5f82821c905092915050565b5f6113b45f1984600802611399565b1980831691505092915050565b5f6113cc83836113a5565b9150826002028217905092915050565b6113e582610d4a565b67ffffffffffffffff8111156113fe576113fd610a97565b5b6114088254610f94565b611413828285611353565b5f60209050601f831160018114611444575f8415611432578287015190505b61143c85826113c1565b8655506114a3565b601f1984166114528661123c565b5f5b8281101561147957848901518255600182019150602085019450602081019050611454565b868310156114965784890151611492601f8916826113a5565b8355505b6001600288020188555050505b50505050505056fea2646970667358221220aa24df483a9cd7b90c767d8b95fb31091a4cfdbaabb8cb4a29cd2f0b048e98e664736f6c634300081e0033",
					"opcodes": "PUSH1 0x80 PUSH1 0x40 MSTORE PUSH1 0x2 PUSH0 SSTORE CALLVALUE DUP1 ISZERO PUSH1 0x12 JUMPI PUSH0 PUSH0 REVERT JUMPDEST POP PUSH2 0x14E1 DUP1 PUSH2 0x20 PUSH0 CODECOPY PUSH0 RETURN INVALID PUSH1 0x80 PUSH1 0x40 MSTORE PUSH1 0x4 CALLDATASIZE LT PUSH2 0x49 JUMPI PUSH0 CALLDATALOAD PUSH1 0xE0 SHR DUP1 PUSH4 0x13BD20E2 EQ PUSH2 0x4D JUMPI DUP1 PUSH4 0x429CAD86 EQ PUSH2 0x89 JUMPI DUP1 PUSH4 0x7476452A EQ PUSH2 0xA5 JUMPI DUP1 PUSH4 0xE1489191 EQ PUSH2 0xE1 JUMPI DUP1 PUSH4 0xFC5F2B78 EQ PUSH2 0x10B JUMPI JUMPDEST PUSH0 PUSH0 REVERT JUMPDEST CALLVALUE DUP1 ISZERO PUSH2 0x58 JUMPI PUSH0 PUSH0 REVERT JUMPDEST POP PUSH2 0x73 PUSH1 0x4 DUP1 CALLDATASIZE SUB DUP2 ADD SWAP1 PUSH2 0x6E SWAP2 SWAP1 PUSH2 0xC15 JUMP JUMPDEST PUSH2 0x133 JUMP JUMPDEST PUSH1 0x40 MLOAD PUSH2 0x80 SWAP2 SWAP1 PUSH2 0xC89 JUMP JUMPDEST PUSH1 0x40 MLOAD DUP1 SWAP2 SUB SWAP1 RETURN JUMPDEST PUSH2 0xA3 PUSH1 0x4 DUP1 CALLDATASIZE SUB DUP2 ADD SWAP1 PUSH2 0x9E SWAP2 SWAP1 PUSH2 0xCFF JUMP JUMPDEST PUSH2 0x175 JUMP JUMPDEST STOP JUMPDEST CALLVALUE DUP1 ISZERO PUSH2 0xB0 JUMPI PUSH0 PUSH0 REVERT JUMPDEST POP PUSH2 0xCB PUSH1 0x4 DUP1 CALLDATASIZE SUB DUP2 ADD SWAP1 PUSH2 0xC6 SWAP2 SWAP1 PUSH2 0xCFF JUMP JUMPDEST PUSH2 0x4C3 JUMP JUMPDEST PUSH1 0x40 MLOAD PUSH2 0xD8 SWAP2 SWAP1 PUSH2 0xE1E JUMP JUMPDEST PUSH1 0x40 MLOAD DUP1 SWAP2 SUB SWAP1 RETURN JUMPDEST CALLVALUE DUP1 ISZERO PUSH2 0xEC JUMPI PUSH0 PUSH0 REVERT JUMPDEST POP PUSH2 0xF5 PUSH2 0x68F JUMP JUMPDEST PUSH1 0x40 MLOAD PUSH2 0x102 SWAP2 SWAP1 PUSH2 0xE4D JUMP JUMPDEST PUSH1 0x40 MLOAD DUP1 SWAP2 SUB SWAP1 RETURN JUMPDEST CALLVALUE DUP1 ISZERO PUSH2 0x116 JUMPI PUSH0 PUSH0 REVERT JUMPDEST POP PUSH2 0x131 PUSH1 0x4 DUP1 CALLDATASIZE SUB DUP2 ADD SWAP1 PUSH2 0x12C SWAP2 SWAP1 PUSH2 0xE90 JUMP JUMPDEST PUSH2 0x694 JUMP JUMPDEST STOP JUMPDEST PUSH1 0x2 DUP3 DUP1 MLOAD PUSH1 0x20 DUP2 ADD DUP3 ADD DUP1 MLOAD DUP5 DUP3 MSTORE PUSH1 0x20 DUP4 ADD PUSH1 0x20 DUP6 ADD KECCAK256 DUP2 DUP4 MSTORE DUP1 SWAP6 POP POP POP POP POP POP PUSH1 0x20 MSTORE DUP1 PUSH0 MSTORE PUSH1 0x40 PUSH0 KECCAK256 PUSH0 SWAP2 POP SWAP2 POP SWAP1 SLOAD SWAP1 PUSH2 0x100 EXP SWAP1 DIV PUSH1 0xFF AND DUP2 JUMP JUMPDEST PUSH0 PUSH1 0x1 DUP4 DUP4 PUSH1 0x40 MLOAD PUSH2 0x188 SWAP3 SWAP2 SWAP1 PUSH2 0xF4F JUMP JUMPDEST SWAP1 DUP2 MSTORE PUSH1 0x20 ADD PUSH1 0x40 MLOAD DUP1 SWAP2 SUB SWAP1 KECCAK256 PUSH1 0x40 MLOAD DUP1 PUSH1 0x60 ADD PUSH1 0x40 MSTORE SWAP1 DUP2 PUSH0 DUP3 ADD DUP1 SLOAD PUSH2 0x1B0 SWAP1 PUSH2 0xF94 JUMP JUMPDEST DUP1 PUSH1 0x1F ADD PUSH1 0x20 DUP1 SWAP2 DIV MUL PUSH1 0x20 ADD PUSH1 0x40 MLOAD SWAP1 DUP2 ADD PUSH1 0x40 MSTORE DUP1 SWAP3 SWAP2 SWAP1 DUP2 DUP2 MSTORE PUSH1 0x20 ADD DUP3 DUP1 SLOAD PUSH2 0x1DC SWAP1 PUSH2 0xF94 JUMP JUMPDEST DUP1 ISZERO PUSH2 0x227 JUMPI DUP1 PUSH1 0x1F LT PUSH2 0x1FE JUMPI PUSH2 0x100 DUP1 DUP4 SLOAD DIV MUL DUP4 MSTORE SWAP2 PUSH1 0x20 ADD SWAP2 PUSH2 0x227 JUMP JUMPDEST DUP3 ADD SWAP2 SWAP1 PUSH0 MSTORE PUSH1 0x20 PUSH0 KECCAK256 SWAP1 JUMPDEST DUP2 SLOAD DUP2 MSTORE SWAP1 PUSH1 0x1 ADD SWAP1 PUSH1 0x20 ADD DUP1 DUP4 GT PUSH2 0x20A JUMPI DUP3 SWAP1 SUB PUSH1 0x1F AND DUP3 ADD SWAP2 JUMPDEST POP POP POP POP POP DUP2 MSTORE PUSH1 0x20 ADD PUSH1 0x1 DUP3 ADD PUSH0 SWAP1 SLOAD SWAP1 PUSH2 0x100 EXP SWAP1 DIV PUSH20 0xFFFFFFFFFFFFFFFFFFFFFFFFFFFFFFFFFFFFFFFF AND PUSH20 0xFFFFFFFFFFFFFFFFFFFFFFFFFFFFFFFFFFFFFFFF AND PUSH20 0xFFFFFFFFFFFFFFFFFFFFFFFFFFFFFFFFFFFFFFFF AND DUP2 MSTORE PUSH1 0x20 ADD PUSH1 0x2 DUP3 ADD SLOAD DUP2 MSTORE POP POP SWAP1 POP PUSH0 PUSH20 0xFFFFFFFFFFFFFFFFFFFFFFFFFFFFFFFFFFFFFFFF AND DUP2 PUSH1 0x20 ADD MLOAD PUSH20 0xFFFFFFFFFFFFFFFFFFFFFFFFFFFFFFFFFFFFFFFF AND SUB PUSH2 0x303 JUMPI PUSH1 0x40 MLOAD PUSH32 0x8C379A000000000000000000000000000000000000000000000000000000000 DUP2 MSTORE PUSH1 0x4 ADD PUSH2 0x2FA SWAP1 PUSH2 0x101E JUMP JUMPDEST PUSH1 0x40 MLOAD DUP1 SWAP2 SUB SWAP1 REVERT JUMPDEST PUSH0 ISZERO ISZERO PUSH1 0x2 DUP5 DUP5 PUSH1 0x40 MLOAD PUSH2 0x318 SWAP3 SWAP2 SWAP1 PUSH2 0xF4F JUMP JUMPDEST SWAP1 DUP2 MSTORE PUSH1 0x20 ADD PUSH1 0x40 MLOAD DUP1 SWAP2 SUB SWAP1 KECCAK256 PUSH0 CALLER PUSH20 0xFFFFFFFFFFFFFFFFFFFFFFFFFFFFFFFFFFFFFFFF AND PUSH20 0xFFFFFFFFFFFFFFFFFFFFFFFFFFFFFFFFFFFFFFFF AND DUP2 MSTORE PUSH1 0x20 ADD SWAP1 DUP2 MSTORE PUSH1 0x20 ADD PUSH0 KECCAK256 PUSH0 SWAP1 SLOAD SWAP1 PUSH2 0x100 EXP SWAP1 DIV PUSH1 0xFF AND ISZERO ISZERO EQ PUSH2 0x3B0 JUMPI PUSH1 0x40 MLOAD PUSH32 0x8C379A000000000000000000000000000000000000000000000000000000000 DUP2 MSTORE PUSH1 0x4 ADD PUSH2 0x3A7 SWAP1 PUSH2 0x1086 JUMP JUMPDEST PUSH1 0x40 MLOAD DUP1 SWAP2 SUB SWAP1 REVERT JUMPDEST DUP1 PUSH1 0x40 ADD MLOAD CALLVALUE LT ISZERO PUSH2 0x3F7 JUMPI PUSH1 0x40 MLOAD PUSH32 0x8C379A000000000000000000000000000000000000000000000000000000000 DUP2 MSTORE PUSH1 0x4 ADD PUSH2 0x3EE SWAP1 PUSH2 0x10EE JUMP JUMPDEST PUSH1 0x40 MLOAD DUP1 SWAP2 SUB SWAP1 REVERT JUMPDEST PUSH1 0x1 PUSH1 0x2 DUP5 DUP5 PUSH1 0x40 MLOAD PUSH2 0x40B SWAP3 SWAP2 SWAP1 PUSH2 0xF4F JUMP JUMPDEST SWAP1 DUP2 MSTORE PUSH1 0x20 ADD PUSH1 0x40 MLOAD DUP1 SWAP2 SUB SWAP1 KECCAK256 PUSH0 CALLER PUSH20 0xFFFFFFFFFFFFFFFFFFFFFFFFFFFFFFFFFFFFFFFF AND PUSH20 0xFFFFFFFFFFFFFFFFFFFFFFFFFFFFFFFFFFFFFFFF AND DUP2 MSTORE PUSH1 0x20 ADD SWAP1 DUP2 MSTORE PUSH1 0x20 ADD PUSH0 KECCAK256 PUSH0 PUSH2 0x100 EXP DUP2 SLOAD DUP2 PUSH1 0xFF MUL NOT AND SWAP1 DUP4 ISZERO ISZERO MUL OR SWAP1 SSTORE POP DUP1 PUSH1 0x20 ADD MLOAD PUSH20 0xFFFFFFFFFFFFFFFFFFFFFFFFFFFFFFFFFFFFFFFF AND PUSH2 0x8FC PUSH0 SLOAD CALLVALUE PUSH2 0x495 SWAP2 SWAP1 PUSH2 0x1139 JUMP JUMPDEST SWAP1 DUP2 ISZERO MUL SWAP1 PUSH1 0x40 MLOAD PUSH0 PUSH1 0x40 MLOAD DUP1 DUP4 SUB DUP2 DUP6 DUP9 DUP9 CALL SWAP4 POP POP POP POP ISZERO DUP1 ISZERO PUSH2 0x4BD JUMPI RETURNDATASIZE PUSH0 PUSH0 RETURNDATACOPY RETURNDATASIZE PUSH0 REVERT JUMPDEST POP POP POP POP JUMP JUMPDEST PUSH2 0x4CB PUSH2 0xA39 JUMP JUMPDEST PUSH0 PUSH1 0x1 DUP5 DUP5 PUSH1 0x40 MLOAD PUSH2 0x4DE SWAP3 SWAP2 SWAP1 PUSH2 0xF4F JUMP JUMPDEST SWAP1 DUP2 MSTORE PUSH1 0x20 ADD PUSH1 0x40 MLOAD DUP1 SWAP2 SUB SWAP1 KECCAK256 PUSH1 0x40 MLOAD DUP1 PUSH1 0x60 ADD PUSH1 0x40 MSTORE SWAP1 DUP2 PUSH0 DUP3 ADD DUP1 SLOAD PUSH2 0x506 SWAP1 PUSH2 0xF94 JUMP JUMPDEST DUP1 PUSH1 0x1F ADD PUSH1 0x20 DUP1 SWAP2 DIV MUL PUSH1 0x20 ADD PUSH1 0x40 MLOAD SWAP1 DUP2 ADD PUSH1 0x40 MSTORE DUP1 SWAP3 SWAP2 SWAP1 DUP2 DUP2 MSTORE PUSH1 0x20 ADD DUP3 DUP1 SLOAD PUSH2 0x532 SWAP1 PUSH2 0xF94 JUMP JUMPDEST DUP1 ISZERO PUSH2 0x57D JUMPI DUP1 PUSH1 0x1F LT PUSH2 0x554 JUMPI PUSH2 0x100 DUP1 DUP4 SLOAD DIV MUL DUP4 MSTORE SWAP2 PUSH1 0x20 ADD SWAP2 PUSH2 0x57D JUMP JUMPDEST DUP3 ADD SWAP2 SWAP1 PUSH0 MSTORE PUSH1 0x20 PUSH0 KECCAK256 SWAP1 JUMPDEST DUP2 SLOAD DUP2 MSTORE SWAP1 PUSH1 0x1 ADD SWAP1 PUSH1 0x20 ADD DUP1 DUP4 GT PUSH2 0x560 JUMPI DUP3 SWAP1 SUB PUSH1 0x1F AND DUP3 ADD SWAP2 JUMPDEST POP POP POP POP POP DUP2 MSTORE PUSH1 0x20 ADD PUSH1 0x1 DUP3 ADD PUSH0 SWAP1 SLOAD SWAP1 PUSH2 0x100 EXP SWAP1 DIV PUSH20 0xFFFFFFFFFFFFFFFFFFFFFFFFFFFFFFFFFFFFFFFF AND PUSH20 0xFFFFFFFFFFFFFFFFFFFFFFFFFFFFFFFFFFFFFFFF AND PUSH20 0xFFFFFFFFFFFFFFFFFFFFFFFFFFFFFFFFFFFFFFFF AND DUP2 MSTORE PUSH1 0x20 ADD PUSH1 0x2 DUP3 ADD SLOAD DUP2 MSTORE POP POP SWAP1 POP PUSH0 DUP2 PUSH1 0x40 ADD MLOAD SUB PUSH2 0x5FB JUMPI DUP1 SWAP2 POP POP PUSH2 0x689 JUMP JUMPDEST PUSH0 ISZERO ISZERO PUSH1 0x2 DUP6 DUP6 PUSH1 0x40 MLOAD PUSH2 0x610 SWAP3 SWAP2 SWAP1 PUSH2 0xF4F JUMP JUMPDEST SWAP1 DUP2 MSTORE PUSH1 0x20 ADD PUSH1 0x40 MLOAD DUP1 SWAP2 SUB SWAP1 KECCAK256 PUSH0 CALLER PUSH20 0xFFFFFFFFFFFFFFFFFFFFFFFFFFFFFFFFFFFFFFFF AND PUSH20 0xFFFFFFFFFFFFFFFFFFFFFFFFFFFFFFFFFFFFFFFF AND DUP2 MSTORE PUSH1 0x20 ADD SWAP1 DUP2 MSTORE PUSH1 0x20 ADD PUSH0 KECCAK256 PUSH0 SWAP1 SLOAD SWAP1 PUSH2 0x100 EXP SWAP1 DIV PUSH1 0xFF AND ISZERO ISZERO SUB PUSH2 0x684 JUMPI PUSH1 0x40 MLOAD DUP1 PUSH1 0x20 ADD PUSH1 0x40 MSTORE DUP1 PUSH0 DUP2 MSTORE POP DUP2 PUSH0 ADD DUP2 SWAP1 MSTORE POP JUMPDEST DUP1 SWAP2 POP POP JUMPDEST SWAP3 SWAP2 POP POP JUMP JUMPDEST PUSH0 SLOAD DUP2 JUMP JUMPDEST PUSH0 PUSH1 0x1 DUP5 DUP5 PUSH1 0x40 MLOAD PUSH2 0x6A7 SWAP3 SWAP2 SWAP1 PUSH2 0xF4F JUMP JUMPDEST SWAP1 DUP2 MSTORE PUSH1 0x20 ADD PUSH1 0x40 MLOAD DUP1 SWAP2 SUB SWAP1 KECCAK256 PUSH1 0x40 MLOAD DUP1 PUSH1 0x60 ADD PUSH1 0x40 MSTORE SWAP1 DUP2 PUSH0 DUP3 ADD DUP1 SLOAD PUSH2 0x6CF SWAP1 PUSH2 0xF94 JUMP JUMPDEST DUP1 PUSH1 0x1F ADD PUSH1 0x20 DUP1 SWAP2 DIV MUL PUSH1 0x20 ADD PUSH1 0x40 MLOAD SWAP1 DUP2 ADD PUSH1 0x40 MSTORE DUP1 SWAP3 SWAP2 SWAP1 DUP2 DUP2 MSTORE PUSH1 0x20 ADD DUP3 DUP1 SLOAD PUSH2 0x6FB SWAP1 PUSH2 0xF94 JUMP JUMPDEST DUP1 ISZERO PUSH2 0x746 JUMPI DUP1 PUSH1 0x1F LT PUSH2 0x71D JUMPI PUSH2 0x100 DUP1 DUP4 SLOAD DIV MUL DUP4 MSTORE SWAP2 PUSH1 0x20 ADD SWAP2 PUSH2 0x746 JUMP JUMPDEST DUP3 ADD SWAP2 SWAP1 PUSH0 MSTORE PUSH1 0x20 PUSH0 KECCAK256 SWAP1 JUMPDEST DUP2 SLOAD DUP2 MSTORE SWAP1 PUSH1 0x1 ADD SWAP1 PUSH1 0x20 ADD DUP1 DUP4 GT PUSH2 0x729 JUMPI DUP3 SWAP1 SUB PUSH1 0x1F AND DUP3 ADD SWAP2 JUMPDEST POP POP POP POP POP DUP2 MSTORE PUSH1 0x20 ADD PUSH1 0x1 DUP3 ADD PUSH0 SWAP1 SLOAD SWAP1 PUSH2 0x100 EXP SWAP1 DIV PUSH20 0xFFFFFFFFFFFFFFFFFFFFFFFFFFFFFFFFFFFFFFFF AND PUSH20 0xFFFFFFFFFFFFFFFFFFFFFFFFFFFFFFFFFFFFFFFF AND PUSH20 0xFFFFFFFFFFFFFFFFFFFFFFFFFFFFFFFFFFFFFFFF AND DUP2 MSTORE PUSH1 0x20 ADD PUSH1 0x2 DUP3 ADD SLOAD DUP2 MSTORE POP POP SWAP1 POP PUSH0 PUSH20 0xFFFFFFFFFFFFFFFFFFFFFFFFFFFFFFFFFFFFFFFF AND DUP2 PUSH1 0x20 ADD MLOAD PUSH20 0xFFFFFFFFFFFFFFFFFFFFFFFFFFFFFFFFFFFFFFFF AND EQ DUP1 PUSH2 0x81D JUMPI POP CALLER PUSH20 0xFFFFFFFFFFFFFFFFFFFFFFFFFFFFFFFFFFFFFFFF AND DUP2 PUSH1 0x20 ADD MLOAD PUSH20 0xFFFFFFFFFFFFFFFFFFFFFFFFFFFFFFFFFFFFFFFF AND EQ JUMPDEST PUSH2 0x85C JUMPI PUSH1 0x40 MLOAD PUSH32 0x8C379A000000000000000000000000000000000000000000000000000000000 DUP2 MSTORE PUSH1 0x4 ADD PUSH2 0x853 SWAP1 PUSH2 0x11B6 JUMP JUMPDEST PUSH1 0x40 MLOAD DUP1 SWAP2 SUB SWAP1 REVERT JUMPDEST PUSH0 DUP3 EQ DUP1 PUSH2 0x86A JUMPI POP PUSH0 SLOAD DUP3 GT JUMPDEST PUSH2 0x8A9 JUMPI PUSH1 0x40 MLOAD PUSH32 0x8C379A000000000000000000000000000000000000000000000000000000000 DUP2 MSTORE PUSH1 0x4 ADD PUSH2 0x8A0 SWAP1 PUSH2 0x121E JUMP JUMPDEST PUSH1 0x40 MLOAD DUP1 SWAP2 SUB SWAP1 REVERT JUMPDEST DUP6 DUP6 DUP1 DUP1 PUSH1 0x1F ADD PUSH1 0x20 DUP1 SWAP2 DIV MUL PUSH1 0x20 ADD PUSH1 0x40 MLOAD SWAP1 DUP2 ADD PUSH1 0x40 MSTORE DUP1 SWAP4 SWAP3 SWAP2 SWAP1 DUP2 DUP2 MSTORE PUSH1 0x20 ADD DUP4 DUP4 DUP1 DUP3 DUP5 CALLDATACOPY PUSH0 DUP2 DUP5 ADD MSTORE PUSH1 0x1F NOT PUSH1 0x1F DUP3 ADD AND SWAP1 POP DUP1 DUP4 ADD SWAP3 POP POP POP POP POP POP POP DUP2 PUSH0 ADD DUP2 SWAP1 MSTORE POP DUP2 DUP2 PUSH1 0x40 ADD DUP2 DUP2 MSTORE POP POP CALLER DUP2 PUSH1 0x20 ADD SWAP1 PUSH20 0xFFFFFFFFFFFFFFFFFFFFFFFFFFFFFFFFFFFFFFFF AND SWAP1 DUP2 PUSH20 0xFFFFFFFFFFFFFFFFFFFFFFFFFFFFFFFFFFFFFFFF AND DUP2 MSTORE POP POP DUP1 PUSH1 0x1 DUP6 DUP6 PUSH1 0x40 MLOAD PUSH2 0x949 SWAP3 SWAP2 SWAP1 PUSH2 0xF4F JUMP JUMPDEST SWAP1 DUP2 MSTORE PUSH1 0x20 ADD PUSH1 0x40 MLOAD DUP1 SWAP2 SUB SWAP1 KECCAK256 PUSH0 DUP3 ADD MLOAD DUP2 PUSH0 ADD SWAP1 DUP2 PUSH2 0x96A SWAP2 SWAP1 PUSH2 0x13DC JUMP JUMPDEST POP PUSH1 0x20 DUP3 ADD MLOAD DUP2 PUSH1 0x1 ADD PUSH0 PUSH2 0x100 EXP DUP2 SLOAD DUP2 PUSH20 0xFFFFFFFFFFFFFFFFFFFFFFFFFFFFFFFFFFFFFFFF MUL NOT AND SWAP1 DUP4 PUSH20 0xFFFFFFFFFFFFFFFFFFFFFFFFFFFFFFFFFFFFFFFF AND MUL OR SWAP1 SSTORE POP PUSH1 0x40 DUP3 ADD MLOAD DUP2 PUSH1 0x2 ADD SSTORE SWAP1 POP POP PUSH1 0x1 PUSH1 0x2 DUP6 DUP6 PUSH1 0x40 MLOAD PUSH2 0x9D2 SWAP3 SWAP2 SWAP1 PUSH2 0xF4F JUMP JUMPDEST SWAP1 DUP2 MSTORE PUSH1 0x20 ADD PUSH1 0x40 MLOAD DUP1 SWAP2 SUB SWAP1 KECCAK256 PUSH0 CALLER PUSH20 0xFFFFFFFFFFFFFFFFFFFFFFFFFFFFFFFFFFFFFFFF AND PUSH20 0xFFFFFFFFFFFFFFFFFFFFFFFFFFFFFFFFFFFFFFFF AND DUP2 MSTORE PUSH1 0x20 ADD SWAP1 DUP2 MSTORE PUSH1 0x20 ADD PUSH0 KECCAK256 PUSH0 PUSH2 0x100 EXP DUP2 SLOAD DUP2 PUSH1 0xFF MUL NOT AND SWAP1 DUP4 ISZERO ISZERO MUL OR SWAP1 SSTORE POP POP POP POP POP POP POP JUMP JUMPDEST PUSH1 0x40 MLOAD DUP1 PUSH1 0x60 ADD PUSH1 0x40 MSTORE DUP1 PUSH1 0x60 DUP2 MSTORE PUSH1 0x20 ADD PUSH0 PUSH20 0xFFFFFFFFFFFFFFFFFFFFFFFFFFFFFFFFFFFFFFFF AND DUP2 MSTORE PUSH1 0x20 ADD PUSH0 DUP2 MSTORE POP SWAP1 JUMP JUMPDEST PUSH0 PUSH1 0x40 MLOAD SWAP1 POP SWAP1 JUMP JUMPDEST PUSH0 PUSH0 REVERT JUMPDEST PUSH0 PUSH0 REVERT JUMPDEST PUSH0 PUSH0 REVERT JUMPDEST PUSH0 PUSH0 REVERT JUMPDEST PUSH0 PUSH1 0x1F NOT PUSH1 0x1F DUP4 ADD AND SWAP1 POP SWAP2 SWAP1 POP JUMP JUMPDEST PUSH32 0x4E487B7100000000000000000000000000000000000000000000000000000000 PUSH0 MSTORE PUSH1 0x41 PUSH1 0x4 MSTORE PUSH1 0x24 PUSH0 REVERT JUMPDEST PUSH2 0xACD DUP3 PUSH2 0xA87 JUMP JUMPDEST DUP2 ADD DUP2 DUP2 LT PUSH8 0xFFFFFFFFFFFFFFFF DUP3 GT OR ISZERO PUSH2 0xAEC JUMPI PUSH2 0xAEB PUSH2 0xA97 JUMP JUMPDEST JUMPDEST DUP1 PUSH1 0x40 MSTORE POP POP POP JUMP JUMPDEST PUSH0 PUSH2 0xAFE PUSH2 0xA6E JUMP JUMPDEST SWAP1 POP PUSH2 0xB0A DUP3 DUP3 PUSH2 0xAC4 JUMP JUMPDEST SWAP2 SWAP1 POP JUMP JUMPDEST PUSH0 PUSH8 0xFFFFFFFFFFFFFFFF DUP3 GT ISZERO PUSH2 0xB29 JUMPI PUSH2 0xB28 PUSH2 0xA97 JUMP JUMPDEST JUMPDEST PUSH2 0xB32 DUP3 PUSH2 0xA87 JUMP JUMPDEST SWAP1 POP PUSH1 0x20 DUP2 ADD SWAP1 POP SWAP2 SWAP1 POP JUMP JUMPDEST DUP3 DUP2 DUP4 CALLDATACOPY PUSH0 DUP4 DUP4 ADD MSTORE POP POP POP JUMP JUMPDEST PUSH0 PUSH2 0xB5F PUSH2 0xB5A DUP5 PUSH2 0xB0F JUMP JUMPDEST PUSH2 0xAF5 JUMP JUMPDEST SWAP1 POP DUP3 DUP2 MSTORE PUSH1 0x20 DUP2 ADD DUP5 DUP5 DUP5 ADD GT ISZERO PUSH2 0xB7B JUMPI PUSH2 0xB7A PUSH2 0xA83 JUMP JUMPDEST JUMPDEST PUSH2 0xB86 DUP5 DUP3 DUP6 PUSH2 0xB3F JUMP JUMPDEST POP SWAP4 SWAP3 POP POP POP JUMP JUMPDEST PUSH0 DUP3 PUSH1 0x1F DUP4 ADD SLT PUSH2 0xBA2 JUMPI PUSH2 0xBA1 PUSH2 0xA7F JUMP JUMPDEST JUMPDEST DUP2 CALLDATALOAD PUSH2 0xBB2 DUP5 DUP3 PUSH1 0x20 DUP7 ADD PUSH2 0xB4D JUMP JUMPDEST SWAP2 POP POP SWAP3 SWAP2 POP POP JUMP JUMPDEST PUSH0 PUSH20 0xFFFFFFFFFFFFFFFFFFFFFFFFFFFFFFFFFFFFFFFF DUP3 AND SWAP1 POP SWAP2 SWAP1 POP JUMP JUMPDEST PUSH0 PUSH2 0xBE4 DUP3 PUSH2 0xBBB JUMP JUMPDEST SWAP1 POP SWAP2 SWAP1 POP JUMP JUMPDEST PUSH2 0xBF4 DUP2 PUSH2 0xBDA JUMP JUMPDEST DUP2 EQ PUSH2 0xBFE JUMPI PUSH0 PUSH0 REVERT JUMPDEST POP JUMP JUMPDEST PUSH0 DUP2 CALLDATALOAD SWAP1 POP PUSH2 0xC0F DUP2 PUSH2 0xBEB JUMP JUMPDEST SWAP3 SWAP2 POP POP JUMP JUMPDEST PUSH0 PUSH0 PUSH1 0x40 DUP4 DUP6 SUB SLT ISZERO PUSH2 0xC2B JUMPI PUSH2 0xC2A PUSH2 0xA77 JUMP JUMPDEST JUMPDEST PUSH0 DUP4 ADD CALLDATALOAD PUSH8 0xFFFFFFFFFFFFFFFF DUP2 GT ISZERO PUSH2 0xC48 JUMPI PUSH2 0xC47 PUSH2 0xA7B JUMP JUMPDEST JUMPDEST PUSH2 0xC54 DUP6 DUP3 DUP7 ADD PUSH2 0xB8E JUMP JUMPDEST SWAP3 POP POP PUSH1 0x20 PUSH2 0xC65 DUP6 DUP3 DUP7 ADD PUSH2 0xC01 JUMP JUMPDEST SWAP2 POP POP SWAP3 POP SWAP3 SWAP1 POP JUMP JUMPDEST PUSH0 DUP2 ISZERO ISZERO SWAP1 POP SWAP2 SWAP1 POP JUMP JUMPDEST PUSH2 0xC83 DUP2 PUSH2 0xC6F JUMP JUMPDEST DUP3 MSTORE POP POP JUMP JUMPDEST PUSH0 PUSH1 0x20 DUP3 ADD SWAP1 POP PUSH2 0xC9C PUSH0 DUP4 ADD DUP5 PUSH2 0xC7A JUMP JUMPDEST SWAP3 SWAP2 POP POP JUMP JUMPDEST PUSH0 PUSH0 REVERT JUMPDEST PUSH0 PUSH0 REVERT JUMPDEST PUSH0 PUSH0 DUP4 PUSH1 0x1F DUP5 ADD SLT PUSH2 0xCBF JUMPI PUSH2 0xCBE PUSH2 0xA7F JUMP JUMPDEST JUMPDEST DUP3 CALLDATALOAD SWAP1 POP PUSH8 0xFFFFFFFFFFFFFFFF DUP2 GT ISZERO PUSH2 0xCDC JUMPI PUSH2 0xCDB PUSH2 0xCA2 JUMP JUMPDEST JUMPDEST PUSH1 0x20 DUP4 ADD SWAP2 POP DUP4 PUSH1 0x1 DUP3 MUL DUP4 ADD GT ISZERO PUSH2 0xCF8 JUMPI PUSH2 0xCF7 PUSH2 0xCA6 JUMP JUMPDEST JUMPDEST SWAP3 POP SWAP3 SWAP1 POP JUMP JUMPDEST PUSH0 PUSH0 PUSH1 0x20 DUP4 DUP6 SUB SLT ISZERO PUSH2 0xD15 JUMPI PUSH2 0xD14 PUSH2 0xA77 JUMP JUMPDEST JUMPDEST PUSH0 DUP4 ADD CALLDATALOAD PUSH8 0xFFFFFFFFFFFFFFFF DUP2 GT ISZERO PUSH2 0xD32 JUMPI PUSH2 0xD31 PUSH2 0xA7B JUMP JUMPDEST JUMPDEST PUSH2 0xD3E DUP6 DUP3 DUP7 ADD PUSH2 0xCAA JUMP JUMPDEST SWAP3 POP SWAP3 POP POP SWAP3 POP SWAP3 SWAP1 POP JUMP JUMPDEST PUSH0 DUP2 MLOAD SWAP1 POP SWAP2 SWAP1 POP JUMP JUMPDEST PUSH0 DUP3 DUP3 MSTORE PUSH1 0x20 DUP3 ADD SWAP1 POP SWAP3 SWAP2 POP POP JUMP JUMPDEST DUP3 DUP2 DUP4 MCOPY PUSH0 DUP4 DUP4 ADD MSTORE POP POP POP JUMP JUMPDEST PUSH0 PUSH2 0xD7C DUP3 PUSH2 0xD4A JUMP JUMPDEST PUSH2 0xD86 DUP2 DUP6 PUSH2 0xD54 JUMP JUMPDEST SWAP4 POP PUSH2 0xD96 DUP2 DUP6 PUSH1 0x20 DUP7 ADD PUSH2 0xD64 JUMP JUMPDEST PUSH2 0xD9F DUP2 PUSH2 0xA87 JUMP JUMPDEST DUP5 ADD SWAP2 POP POP SWAP3 SWAP2 POP POP JUMP JUMPDEST PUSH2 0xDB3 DUP2 PUSH2 0xBDA JUMP JUMPDEST DUP3 MSTORE POP POP JUMP JUMPDEST PUSH0 DUP2 SWAP1 POP SWAP2 SWAP1 POP JUMP JUMPDEST PUSH2 0xDCB DUP2 PUSH2 0xDB9 JUMP JUMPDEST DUP3 MSTORE POP POP JUMP JUMPDEST PUSH0 PUSH1 0x60 DUP4 ADD PUSH0 DUP4 ADD MLOAD DUP5 DUP3 SUB PUSH0 DUP7 ADD MSTORE PUSH2 0xDEB DUP3 DUP3 PUSH2 0xD72 JUMP JUMPDEST SWAP2 POP POP PUSH1 0x20 DUP4 ADD MLOAD PUSH2 0xE00 PUSH1 0x20 DUP7 ADD DUP3 PUSH2 0xDAA JUMP JUMPDEST POP PUSH1 0x40 DUP4 ADD MLOAD PUSH2 0xE13 PUSH1 0x40 DUP7 ADD DUP3 PUSH2 0xDC2 JUMP JUMPDEST POP DUP1 SWAP2 POP POP SWAP3 SWAP2 POP POP JUMP JUMPDEST PUSH0 PUSH1 0x20 DUP3 ADD SWAP1 POP DUP2 DUP2 SUB PUSH0 DUP4 ADD MSTORE PUSH2 0xE36 DUP2 DUP5 PUSH2 0xDD1 JUMP JUMPDEST SWAP1 POP SWAP3 SWAP2 POP POP JUMP JUMPDEST PUSH2 0xE47 DUP2 PUSH2 0xDB9 JUMP JUMPDEST DUP3 MSTORE POP POP JUMP JUMPDEST PUSH0 PUSH1 0x20 DUP3 ADD SWAP1 POP PUSH2 0xE60 PUSH0 DUP4 ADD DUP5 PUSH2 0xE3E JUMP JUMPDEST SWAP3 SWAP2 POP POP JUMP JUMPDEST PUSH2 0xE6F DUP2 PUSH2 0xDB9 JUMP JUMPDEST DUP2 EQ PUSH2 0xE79 JUMPI PUSH0 PUSH0 REVERT JUMPDEST POP JUMP JUMPDEST PUSH0 DUP2 CALLDATALOAD SWAP1 POP PUSH2 0xE8A DUP2 PUSH2 0xE66 JUMP JUMPDEST SWAP3 SWAP2 POP POP JUMP JUMPDEST PUSH0 PUSH0 PUSH0 PUSH0 PUSH0 PUSH1 0x60 DUP7 DUP9 SUB SLT ISZERO PUSH2 0xEA9 JUMPI PUSH2 0xEA8 PUSH2 0xA77 JUMP JUMPDEST JUMPDEST PUSH0 DUP7 ADD CALLDATALOAD PUSH8 0xFFFFFFFFFFFFFFFF DUP2 GT ISZERO PUSH2 0xEC6 JUMPI PUSH2 0xEC5 PUSH2 0xA7B JUMP JUMPDEST JUMPDEST PUSH2 0xED2 DUP9 DUP3 DUP10 ADD PUSH2 0xCAA JUMP JUMPDEST SWAP6 POP SWAP6 POP POP PUSH1 0x20 DUP7 ADD CALLDATALOAD PUSH8 0xFFFFFFFFFFFFFFFF DUP2 GT ISZERO PUSH2 0xEF5 JUMPI PUSH2 0xEF4 PUSH2 0xA7B JUMP JUMPDEST JUMPDEST PUSH2 0xF01 DUP9 DUP3 DUP10 ADD PUSH2 0xCAA JUMP JUMPDEST SWAP4 POP SWAP4 POP POP PUSH1 0x40 PUSH2 0xF14 DUP9 DUP3 DUP10 ADD PUSH2 0xE7C JUMP JUMPDEST SWAP2 POP POP SWAP3 SWAP6 POP SWAP3 SWAP6 SWAP1 SWAP4 POP JUMP JUMPDEST PUSH0 DUP2 SWAP1 POP SWAP3 SWAP2 POP POP JUMP JUMPDEST PUSH0 PUSH2 0xF36 DUP4 DUP6 PUSH2 0xF21 JUMP JUMPDEST SWAP4 POP PUSH2 0xF43 DUP4 DUP6 DUP5 PUSH2 0xB3F JUMP JUMPDEST DUP3 DUP5 ADD SWAP1 POP SWAP4 SWAP3 POP POP POP JUMP JUMPDEST PUSH0 PUSH2 0xF5B DUP3 DUP5 DUP7 PUSH2 0xF2B JUMP JUMPDEST SWAP2 POP DUP2 SWAP1 POP SWAP4 SWAP3 POP POP POP JUMP JUMPDEST PUSH32 0x4E487B7100000000000000000000000000000000000000000000000000000000 PUSH0 MSTORE PUSH1 0x22 PUSH1 0x4 MSTORE PUSH1 0x24 PUSH0 REVERT JUMPDEST PUSH0 PUSH1 0x2 DUP3 DIV SWAP1 POP PUSH1 0x1 DUP3 AND DUP1 PUSH2 0xFAB JUMPI PUSH1 0x7F DUP3 AND SWAP2 POP JUMPDEST PUSH1 0x20 DUP3 LT DUP2 SUB PUSH2 0xFBE JUMPI PUSH2 0xFBD PUSH2 0xF67 JUMP JUMPDEST JUMPDEST POP SWAP2 SWAP1 POP JUMP JUMPDEST PUSH0 DUP3 DUP3 MSTORE PUSH1 0x20 DUP3 ADD SWAP1 POP SWAP3 SWAP2 POP POP JUMP JUMPDEST PUSH32 0x4C696E6B206E6F7420666F756E64000000000000000000000000000000000000 PUSH0 DUP3 ADD MSTORE POP JUMP JUMPDEST PUSH0 PUSH2 0x1008 PUSH1 0xE DUP4 PUSH2 0xFC4 JUMP JUMPDEST SWAP2 POP PUSH2 0x1013 DUP3 PUSH2 0xFD4 JUMP JUMPDEST PUSH1 0x20 DUP3 ADD SWAP1 POP SWAP2 SWAP1 POP JUMP JUMPDEST PUSH0 PUSH1 0x20 DUP3 ADD SWAP1 POP DUP2 DUP2 SUB PUSH0 DUP4 ADD MSTORE PUSH2 0x1035 DUP2 PUSH2 0xFFC JUMP JUMPDEST SWAP1 POP SWAP2 SWAP1 POP JUMP JUMPDEST PUSH32 0x596F7520616C7265616479206861766520616363657373000000000000000000 PUSH0 DUP3 ADD MSTORE POP JUMP JUMPDEST PUSH0 PUSH2 0x1070 PUSH1 0x17 DUP4 PUSH2 0xFC4 JUMP JUMPDEST SWAP2 POP PUSH2 0x107B DUP3 PUSH2 0x103C JUMP JUMPDEST PUSH1 0x20 DUP3 ADD SWAP1 POP SWAP2 SWAP1 POP JUMP JUMPDEST PUSH0 PUSH1 0x20 DUP3 ADD SWAP1 POP DUP2 DUP2 SUB PUSH0 DUP4 ADD MSTORE PUSH2 0x109D DUP2 PUSH2 0x1064 JUMP JUMPDEST SWAP1 POP SWAP2 SWAP1 POP JUMP JUMPDEST PUSH32 0x496E73756666696369656E74207061796D656E74000000000000000000000000 PUSH0 DUP3 ADD MSTORE POP JUMP JUMPDEST PUSH0 PUSH2 0x10D8 PUSH1 0x14 DUP4 PUSH2 0xFC4 JUMP JUMPDEST SWAP2 POP PUSH2 0x10E3 DUP3 PUSH2 0x10A4 JUMP JUMPDEST PUSH1 0x20 DUP3 ADD SWAP1 POP SWAP2 SWAP1 POP JUMP JUMPDEST PUSH0 PUSH1 0x20 DUP3 ADD SWAP1 POP DUP2 DUP2 SUB PUSH0 DUP4 ADD MSTORE PUSH2 0x1105 DUP2 PUSH2 0x10CC JUMP JUMPDEST SWAP1 POP SWAP2 SWAP1 POP JUMP JUMPDEST PUSH32 0x4E487B7100000000000000000000000000000000000000000000000000000000 PUSH0 MSTORE PUSH1 0x11 PUSH1 0x4 MSTORE PUSH1 0x24 PUSH0 REVERT JUMPDEST PUSH0 PUSH2 0x1143 DUP3 PUSH2 0xDB9 JUMP JUMPDEST SWAP2 POP PUSH2 0x114E DUP4 PUSH2 0xDB9 JUMP JUMPDEST SWAP3 POP DUP3 DUP3 SUB SWAP1 POP DUP2 DUP2 GT ISZERO PUSH2 0x1166 JUMPI PUSH2 0x1165 PUSH2 0x110C JUMP JUMPDEST JUMPDEST SWAP3 SWAP2 POP POP JUMP JUMPDEST PUSH32 0x54686973206C696E6B496420616C726561642068617320616E206F776E657200 PUSH0 DUP3 ADD MSTORE POP JUMP JUMPDEST PUSH0 PUSH2 0x11A0 PUSH1 0x1F DUP4 PUSH2 0xFC4 JUMP JUMPDEST SWAP2 POP PUSH2 0x11AB DUP3 PUSH2 0x116C JUMP JUMPDEST PUSH1 0x20 DUP3 ADD SWAP1 POP SWAP2 SWAP1 POP JUMP JUMPDEST PUSH0 PUSH1 0x20 DUP3 ADD SWAP1 POP DUP2 DUP2 SUB PUSH0 DUP4 ADD MSTORE PUSH2 0x11CD DUP2 PUSH2 0x1194 JUMP JUMPDEST SWAP1 POP SWAP2 SWAP1 POP JUMP JUMPDEST PUSH32 0x46656520746F206C6F7700000000000000000000000000000000000000000000 PUSH0 DUP3 ADD MSTORE POP JUMP JUMPDEST PUSH0 PUSH2 0x1208 PUSH1 0xA DUP4 PUSH2 0xFC4 JUMP JUMPDEST SWAP2 POP PUSH2 0x1213 DUP3 PUSH2 0x11D4 JUMP JUMPDEST PUSH1 0x20 DUP3 ADD SWAP1 POP SWAP2 SWAP1 POP JUMP JUMPDEST PUSH0 PUSH1 0x20 DUP3 ADD SWAP1 POP DUP2 DUP2 SUB PUSH0 DUP4 ADD MSTORE PUSH2 0x1235 DUP2 PUSH2 0x11FC JUMP JUMPDEST SWAP1 POP SWAP2 SWAP1 POP JUMP JUMPDEST PUSH0 DUP2 SWAP1 POP DUP2 PUSH0 MSTORE PUSH1 0x20 PUSH0 KECCAK256 SWAP1 POP SWAP2 SWAP1 POP JUMP JUMPDEST PUSH0 PUSH1 0x20 PUSH1 0x1F DUP4 ADD DIV SWAP1 POP SWAP2 SWAP1 POP JUMP JUMPDEST PUSH0 DUP3 DUP3 SHL SWAP1 POP SWAP3 SWAP2 POP POP JUMP JUMPDEST PUSH0 PUSH1 0x8 DUP4 MUL PUSH2 0x1298 PUSH32 0xFFFFFFFFFFFFFFFFFFFFFFFFFFFFFFFFFFFFFFFFFFFFFFFFFFFFFFFFFFFFFFFF DUP3 PUSH2 0x125D JUMP JUMPDEST PUSH2 0x12A2 DUP7 DUP4 PUSH2 0x125D JUMP JUMPDEST SWAP6 POP DUP1 NOT DUP5 AND SWAP4 POP DUP1 DUP7 AND DUP5 OR SWAP3 POP POP POP SWAP4 SWAP3 POP POP POP JUMP JUMPDEST PUSH0 DUP2 SWAP1 POP SWAP2 SWAP1 POP JUMP JUMPDEST PUSH0 PUSH2 0x12DD PUSH2 0x12D8 PUSH2 0x12D3 DUP5 PUSH2 0xDB9 JUMP JUMPDEST PUSH2 0x12BA JUMP JUMPDEST PUSH2 0xDB9 JUMP JUMPDEST SWAP1 POP SWAP2 SWAP1 POP JUMP JUMPDEST PUSH0 DUP2 SWAP1 POP SWAP2 SWAP1 POP JUMP JUMPDEST PUSH2 0x12F6 DUP4 PUSH2 0x12C3 JUMP JUMPDEST PUSH2 0x130A PUSH2 0x1302 DUP3 PUSH2 0x12E4 JUMP JUMPDEST DUP5 DUP5 SLOAD PUSH2 0x1269 JUMP JUMPDEST DUP3 SSTORE POP POP POP POP JUMP JUMPDEST PUSH0 PUSH0 SWAP1 POP SWAP1 JUMP JUMPDEST PUSH2 0x1321 PUSH2 0x1312 JUMP JUMPDEST PUSH2 0x132C DUP2 DUP5 DUP5 PUSH2 0x12ED JUMP JUMPDEST POP POP POP JUMP JUMPDEST JUMPDEST DUP2 DUP2 LT ISZERO PUSH2 0x134F JUMPI PUSH2 0x1344 PUSH0 DUP3 PUSH2 0x1319 JUMP JUMPDEST PUSH1 0x1 DUP2 ADD SWAP1 POP PUSH2 0x1332 JUMP JUMPDEST POP POP JUMP JUMPDEST PUSH1 0x1F DUP3 GT ISZERO PUSH2 0x1394 JUMPI PUSH2 0x1365 DUP2 PUSH2 0x123C JUMP JUMPDEST PUSH2 0x136E DUP5 PUSH2 0x124E JUMP JUMPDEST DUP2 ADD PUSH1 0x20 DUP6 LT ISZERO PUSH2 0x137D JUMPI DUP2 SWAP1 POP JUMPDEST PUSH2 0x1391 PUSH2 0x1389 DUP6 PUSH2 0x124E JUMP JUMPDEST DUP4 ADD DUP3 PUSH2 0x1331 JUMP JUMPDEST POP POP JUMPDEST POP POP POP JUMP JUMPDEST PUSH0 DUP3 DUP3 SHR SWAP1 POP SWAP3 SWAP2 POP POP JUMP JUMPDEST PUSH0 PUSH2 0x13B4 PUSH0 NOT DUP5 PUSH1 0x8 MUL PUSH2 0x1399 JUMP JUMPDEST NOT DUP1 DUP4 AND SWAP2 POP POP SWAP3 SWAP2 POP POP JUMP JUMPDEST PUSH0 PUSH2 0x13CC DUP4 DUP4 PUSH2 0x13A5 JUMP JUMPDEST SWAP2 POP DUP3 PUSH1 0x2 MUL DUP3 OR SWAP1 POP SWAP3 SWAP2 POP POP JUMP JUMPDEST PUSH2 0x13E5 DUP3 PUSH2 0xD4A JUMP JUMPDEST PUSH8 0xFFFFFFFFFFFFFFFF DUP2 GT ISZERO PUSH2 0x13FE JUMPI PUSH2 0x13FD PUSH2 0xA97 JUMP JUMPDEST JUMPDEST PUSH2 0x1408 DUP3 SLOAD PUSH2 0xF94 JUMP JUMPDEST PUSH2 0x1413 DUP3 DUP3 DUP6 PUSH2 0x1353 JUMP JUMPDEST PUSH0 PUSH1 0x20 SWAP1 POP PUSH1 0x1F DUP4 GT PUSH1 0x1 DUP2 EQ PUSH2 0x1444 JUMPI PUSH0 DUP5 ISZERO PUSH2 0x1432 JUMPI DUP3 DUP8 ADD MLOAD SWAP1 POP JUMPDEST PUSH2 0x143C DUP6 DUP3 PUSH2 0x13C1 JUMP JUMPDEST DUP7 SSTORE POP PUSH2 0x14A3 JUMP JUMPDEST PUSH1 0x1F NOT DUP5 AND PUSH2 0x1452 DUP7 PUSH2 0x123C JUMP JUMPDEST PUSH0 JUMPDEST DUP3 DUP2 LT ISZERO PUSH2 0x1479 JUMPI DUP5 DUP10 ADD MLOAD DUP3 SSTORE PUSH1 0x1 DUP3 ADD SWAP2 POP PUSH1 0x20 DUP6 ADD SWAP5 POP PUSH1 0x20 DUP2 ADD SWAP1 POP PUSH2 0x1454 JUMP JUMPDEST DUP7 DUP4 LT ISZERO PUSH2 0x1496 JUMPI DUP5 DUP10 ADD MLOAD PUSH2 0x1492 PUSH1 0x1F DUP10 AND DUP3 PUSH2 0x13A5 JUMP JUMPDEST DUP4 SSTORE POP JUMPDEST PUSH1 0x1 PUSH1 0x2 DUP9 MUL ADD DUP9 SSTORE POP POP POP JUMPDEST POP POP POP POP POP POP JUMP INVALID LOG2 PUSH5 0x6970667358 0x22 SLT KECCAK256 0xAA 0x24 0xDF BASEFEE GASPRICE SWAP13 0xD7 0xB9 0xC PUSH23 0x7D8B95FB31091A4CFDBAABB8CB4A29CD2F0B048E98E664 PUSH20 0x6F6C634300081E00330000000000000000000000 "
				},
				"gasEstimates": {
					"creation": {
						"codeDepositCost": "1069000",
						"executionCost": "23217",
						"totalCost": "1092217"
					},
					"external": {
						"addLink(string,string,uint256)": "infinite",
						"commission()": "2468",
						"getLink(string)": "infinite",
						"hasAccess(string,address)": "infinite",
						"payLink(string)": "infinite"
					}
				},
				"methodIdentifiers": {
					"addLink(string,string,uint256)": "fc5f2b78",
					"commission()": "e1489191",
					"getLink(string)": "7476452a",
					"hasAccess(string,address)": "13bd20e2",
					"payLink(string)": "429cad86"
				}
			},
			"storageLayout": {
				"storage": [
					{
						"astId": 11,
						"contract": "contracts/LinkShield.sol:LinkShield",
						"label": "commission",
						"offset": 0,
						"slot": "0",
						"type": "t_uint256"
					},
					{
						"astId": 16,
						"contract": "contracts/LinkShield.sol:LinkShield",
						"label": "links",
						"offset": 0,
						"slot": "1",
						"type": "t_mapping(t_string_memory_ptr,t_struct(Link)8_storage)"
					},
					{
						"astId": 22,
						"contract": "contracts/LinkShield.sol:LinkShield",
						"label": "hasAccess",
						"offset": 0,
						"slot": "2",
						"type": "t_mapping(t_string_memory_ptr,t_mapping(t_address,t_bool))"
					}
				],
				"types": {
					"t_address": {
						"encoding": "inplace",
						"label": "address",
						"numberOfBytes": "20"
					},
					"t_bool": {
						"encoding": "inplace",
						"label": "bool",
						"numberOfBytes": "1"
					},
					"t_mapping(t_address,t_bool)": {
						"encoding": "mapping",
						"key": "t_address",
						"label": "mapping(address => bool)",
						"numberOfBytes": "32",
						"value": "t_bool"
					},
					"t_mapping(t_string_memory_ptr,t_mapping(t_address,t_bool))": {
						"encoding": "mapping",
						"key": "t_string_memory_ptr",
						"label": "mapping(string => mapping(address => bool))",
						"numberOfBytes": "32",
						"value": "t_mapping(t_address,t_bool)"
					},
					"t_mapping(t_string_memory_ptr,t_struct(Link)8_storage)": {
						"encoding": "mapping",
						"key": "t_string_memory_ptr",
						"label": "mapping(string => struct LinkShield.Link)",
						"numberOfBytes": "32",
						"value": "t_struct(Link)8_storage"
					},
					"t_string_memory_ptr": {
						"encoding": "bytes",
						"label": "string",
						"numberOfBytes": "32"
					},
					"t_string_storage": {
						"encoding": "bytes",
						"label": "string",
						"numberOfBytes": "32"
					},
					"t_struct(Link)8_storage": {
						"encoding": "inplace",
						"label": "struct LinkShield.Link",
						"members": [
							{
								"astId": 3,
								"contract": "contracts/LinkShield.sol:LinkShield",
								"label": "url",
								"offset": 0,
								"slot": "0",
								"type": "t_string_storage"
							},
							{
								"astId": 5,
								"contract": "contracts/LinkShield.sol:LinkShield",
								"label": "owner",
								"offset": 0,
								"slot": "1",
								"type": "t_address"
							},
							{
								"astId": 7,
								"contract": "contracts/LinkShield.sol:LinkShield",
								"label": "fee",
								"offset": 0,
								"slot": "2",
								"type": "t_uint256"
							}
						],
						"numberOfBytes": "96"
					},
					"t_uint256": {
						"encoding": "inplace",
						"label": "uint256",
						"numberOfBytes": "32"
					}
				}
			},
			"userdoc": {
				"kind": "user",
				"methods": {},
				"version": 1
			}
		}
	}
}